{
	"FundMe/FundMe.sol": {
		"FundMe": {
			"abi": [
				{
					"inputs": [],
					"stateMutability": "nonpayable",
					"type": "constructor"
				},
				{
					"inputs": [
						{
							"internalType": "address",
							"name": "",
							"type": "address"
						}
					],
					"name": "addressToAmountFunded",
					"outputs": [
						{
							"internalType": "uint256",
							"name": "",
							"type": "uint256"
						}
					],
					"stateMutability": "view",
					"type": "function"
				},
				{
					"inputs": [],
					"name": "fund",
					"outputs": [],
					"stateMutability": "payable",
					"type": "function"
				},
				{
					"inputs": [
						{
							"internalType": "uint256",
							"name": "",
							"type": "uint256"
						}
					],
					"name": "funders",
					"outputs": [
						{
							"internalType": "address",
							"name": "",
							"type": "address"
						}
					],
					"stateMutability": "view",
					"type": "function"
				},
				{
					"inputs": [],
					"name": "minimumUSD",
					"outputs": [
						{
							"internalType": "uint256",
							"name": "",
							"type": "uint256"
						}
					],
					"stateMutability": "view",
					"type": "function"
				},
				{
					"inputs": [],
					"name": "owner",
					"outputs": [
						{
							"internalType": "address",
							"name": "",
							"type": "address"
						}
					],
					"stateMutability": "view",
					"type": "function"
				},
				{
					"inputs": [],
					"name": "withdraw",
					"outputs": [],
					"stateMutability": "nonpayable",
					"type": "function"
				}
			],
			"devdoc": {
				"kind": "dev",
				"methods": {},
				"version": 1
			},
			"evm": {
				"assembly": "    /* \"FundMe/FundMe.sol\":358:3081  contract FundMe {... */\n  mstore(0x40, 0x80)\n    /* \"FundMe/FundMe.sol\":479:487  5 * 1e18 */\n  0x4563918244f40000\n    /* \"FundMe/FundMe.sol\":451:487  uint256 public minimumUSD = 5 * 1e18 */\n  0x00\n  sstore\n    /* \"FundMe/FundMe.sol\":624:763  constructor() {... */\n  callvalue\n  dup1\n  iszero\n  tag_1\n  jumpi\n  0x00\n  dup1\n  revert\ntag_1:\n  pop\n    /* \"FundMe/FundMe.sol\":656:666  msg.sender */\n  caller\n    /* \"FundMe/FundMe.sol\":648:653  owner */\n  0x03\n  0x00\n    /* \"FundMe/FundMe.sol\":648:666  owner = msg.sender */\n  0x0100\n  exp\n  dup2\n  sload\n  dup2\n  0xffffffffffffffffffffffffffffffffffffffff\n  mul\n  not\n  and\n  swap1\n  dup4\n  0xffffffffffffffffffffffffffffffffffffffff\n  and\n  mul\n  or\n  swap1\n  sstore\n  pop\n    /* \"FundMe/FundMe.sol\":358:3081  contract FundMe {... */\n  dataSize(sub_0)\n  dup1\n  dataOffset(sub_0)\n  0x00\n  codecopy\n  0x00\n  return\nstop\n\nsub_0: assembly {\n        /* \"FundMe/FundMe.sol\":358:3081  contract FundMe {... */\n      mstore(0x40, 0x80)\n      jumpi(tag_1, lt(calldatasize, 0x04))\n      shr(0xe0, calldataload(0x00))\n      dup1\n      0x3430a88c\n      eq\n      tag_2\n      jumpi\n      dup1\n      0x3ccfd60b\n      eq\n      tag_3\n      jumpi\n      dup1\n      0x3e47d6f3\n      eq\n      tag_4\n      jumpi\n      dup1\n      0x8da5cb5b\n      eq\n      tag_5\n      jumpi\n      dup1\n      0xb60d4288\n      eq\n      tag_6\n      jumpi\n      dup1\n      0xdc0d3dff\n      eq\n      tag_7\n      jumpi\n    tag_1:\n      0x00\n      dup1\n      revert\n        /* \"FundMe/FundMe.sol\":451:487  uint256 public minimumUSD = 5 * 1e18 */\n    tag_2:\n      callvalue\n      dup1\n      iszero\n      tag_8\n      jumpi\n      0x00\n      dup1\n      revert\n    tag_8:\n      pop\n      tag_9\n      tag_10\n      jump\t// in\n    tag_9:\n      mload(0x40)\n      tag_11\n      swap2\n      swap1\n      tag_12\n      jump\t// in\n    tag_11:\n      mload(0x40)\n      dup1\n      swap2\n      sub\n      swap1\n      return\n        /* \"FundMe/FundMe.sol\":1424:2872  function withdraw() public onlyOwner {... */\n    tag_3:\n      callvalue\n      dup1\n      iszero\n      tag_13\n      jumpi\n      0x00\n      dup1\n      revert\n    tag_13:\n      pop\n      tag_14\n      tag_15\n      jump\t// in\n    tag_14:\n      stop\n        /* \"FundMe/FundMe.sol\":535:591  mapping(address => uint256) public addressToAmountFunded */\n    tag_4:\n      callvalue\n      dup1\n      iszero\n      tag_16\n      jumpi\n      0x00\n      dup1\n      revert\n    tag_16:\n      pop\n      tag_17\n      0x04\n      dup1\n      calldatasize\n      sub\n      dup2\n      add\n      swap1\n      tag_18\n      swap2\n      swap1\n      tag_19\n      jump\t// in\n    tag_18:\n      tag_20\n      jump\t// in\n    tag_17:\n      mload(0x40)\n      tag_21\n      swap2\n      swap1\n      tag_12\n      jump\t// in\n    tag_21:\n      mload(0x40)\n      dup1\n      swap2\n      sub\n      swap1\n      return\n        /* \"FundMe/FundMe.sol\":597:617  address public owner */\n    tag_5:\n      callvalue\n      dup1\n      iszero\n      tag_22\n      jumpi\n      0x00\n      dup1\n      revert\n    tag_22:\n      pop\n      tag_23\n      tag_24\n      jump\t// in\n    tag_23:\n      mload(0x40)\n      tag_25\n      swap2\n      swap1\n      tag_26\n      jump\t// in\n    tag_25:\n      mload(0x40)\n      dup1\n      swap2\n      sub\n      swap1\n      return\n        /* \"FundMe/FundMe.sol\":769:1418  function fund() public payable {... */\n    tag_6:\n      tag_27\n      tag_28\n      jump\t// in\n    tag_27:\n      stop\n        /* \"FundMe/FundMe.sol\":505:529  address[] public funders */\n    tag_7:\n      callvalue\n      dup1\n      iszero\n      tag_29\n      jumpi\n      0x00\n      dup1\n      revert\n    tag_29:\n      pop\n      tag_30\n      0x04\n      dup1\n      calldatasize\n      sub\n      dup2\n      add\n      swap1\n      tag_31\n      swap2\n      swap1\n      tag_32\n      jump\t// in\n    tag_31:\n      tag_33\n      jump\t// in\n    tag_30:\n      mload(0x40)\n      tag_34\n      swap2\n      swap1\n      tag_26\n      jump\t// in\n    tag_34:\n      mload(0x40)\n      dup1\n      swap2\n      sub\n      swap1\n      return\n        /* \"FundMe/FundMe.sol\":451:487  uint256 public minimumUSD = 5 * 1e18 */\n    tag_10:\n      sload(0x00)\n      dup2\n      jump\t// out\n        /* \"FundMe/FundMe.sol\":1424:2872  function withdraw() public onlyOwner {... */\n    tag_15:\n        /* \"FundMe/FundMe.sol\":2930:2935  owner */\n      0x03\n      0x00\n      swap1\n      sload\n      swap1\n      0x0100\n      exp\n      swap1\n      div\n      0xffffffffffffffffffffffffffffffffffffffff\n      and\n        /* \"FundMe/FundMe.sol\":2916:2935  msg.sender == owner */\n      0xffffffffffffffffffffffffffffffffffffffff\n      and\n        /* \"FundMe/FundMe.sol\":2916:2926  msg.sender */\n      caller\n        /* \"FundMe/FundMe.sol\":2916:2935  msg.sender == owner */\n      0xffffffffffffffffffffffffffffffffffffffff\n      and\n      eq\n        /* \"FundMe/FundMe.sol\":2908:2959  require(msg.sender == owner, \"Sender is not owner\") */\n      tag_36\n      jumpi\n      mload(0x40)\n      0x08c379a000000000000000000000000000000000000000000000000000000000\n      dup2\n      mstore\n      0x04\n      add\n      tag_37\n      swap1\n      tag_38\n      jump\t// in\n    tag_37:\n      mload(0x40)\n      dup1\n      swap2\n      sub\n      swap1\n      revert\n    tag_36:\n        /* \"FundMe/FundMe.sol\":1659:1678  uint256 funderIndex */\n      0x00\n        /* \"FundMe/FundMe.sol\":1582:1871  for (... */\n    tag_40:\n        /* \"FundMe/FundMe.sol\":1710:1717  funders */\n      0x01\n        /* \"FundMe/FundMe.sol\":1710:1724  funders.length */\n      dup1\n      sload\n      swap1\n      pop\n        /* \"FundMe/FundMe.sol\":1696:1707  funderIndex */\n      dup2\n        /* \"FundMe/FundMe.sol\":1696:1724  funderIndex < funders.length */\n      lt\n        /* \"FundMe/FundMe.sol\":1582:1871  for (... */\n      iszero\n      tag_41\n      jumpi\n        /* \"FundMe/FundMe.sol\":1776:1790  address funder */\n      0x00\n        /* \"FundMe/FundMe.sol\":1793:1800  funders */\n      0x01\n        /* \"FundMe/FundMe.sol\":1801:1812  funderIndex */\n      dup3\n        /* \"FundMe/FundMe.sol\":1793:1813  funders[funderIndex] */\n      dup2\n      sload\n      dup2\n      lt\n      tag_43\n      jumpi\n      tag_44\n      tag_45\n      jump\t// in\n    tag_44:\n    tag_43:\n      swap1\n      0x00\n      mstore\n      keccak256(0x00, 0x20)\n      add\n      0x00\n      swap1\n      sload\n      swap1\n      0x0100\n      exp\n      swap1\n      div\n      0xffffffffffffffffffffffffffffffffffffffff\n      and\n        /* \"FundMe/FundMe.sol\":1776:1813  address funder = funders[funderIndex] */\n      swap1\n      pop\n        /* \"FundMe/FundMe.sol\":1859:1860  0 */\n      0x00\n        /* \"FundMe/FundMe.sol\":1827:1848  addressToAmountFunded */\n      0x02\n        /* \"FundMe/FundMe.sol\":1827:1856  addressToAmountFunded[funder] */\n      0x00\n        /* \"FundMe/FundMe.sol\":1849:1855  funder */\n      dup4\n        /* \"FundMe/FundMe.sol\":1827:1856  addressToAmountFunded[funder] */\n      0xffffffffffffffffffffffffffffffffffffffff\n      and\n      0xffffffffffffffffffffffffffffffffffffffff\n      and\n      dup2\n      mstore\n      0x20\n      add\n      swap1\n      dup2\n      mstore\n      0x20\n      add\n      0x00\n      keccak256\n        /* \"FundMe/FundMe.sol\":1827:1860  addressToAmountFunded[funder] = 0 */\n      dup2\n      swap1\n      sstore\n      pop\n        /* \"FundMe/FundMe.sol\":1762:1871  {... */\n      pop\n        /* \"FundMe/FundMe.sol\":1738:1751  funderIndex++ */\n      dup1\n      dup1\n      0x01\n      add\n      swap2\n      pop\n      pop\n        /* \"FundMe/FundMe.sol\":1582:1871  for (... */\n      jump(tag_40)\n    tag_41:\n      pop\n        /* \"FundMe/FundMe.sol\":1905:1906  0 */\n      0x00\n        /* \"FundMe/FundMe.sol\":1891:1907  new address[](0) */\n      0xffffffffffffffff\n      dup2\n      gt\n      iszero\n      tag_47\n      jumpi\n      tag_48\n      tag_49\n      jump\t// in\n    tag_48:\n    tag_47:\n      mload(0x40)\n      swap1\n      dup1\n      dup3\n      mstore\n      dup1\n      0x20\n      mul\n      0x20\n      add\n      dup3\n      add\n      0x40\n      mstore\n      dup1\n      iszero\n      tag_50\n      jumpi\n      dup2\n      0x20\n      add\n      0x20\n      dup3\n      mul\n      dup1\n      calldatasize\n      dup4\n      calldatacopy\n      dup1\n      dup3\n      add\n      swap2\n      pop\n      pop\n      swap1\n      pop\n    tag_50:\n      pop\n        /* \"FundMe/FundMe.sol\":1881:1888  funders */\n      0x01\n        /* \"FundMe/FundMe.sol\":1881:1907  funders = new address[](0) */\n      swap1\n      dup1\n      mload\n      swap1\n      0x20\n      add\n      swap1\n      tag_51\n      swap3\n      swap2\n      swap1\n      tag_52\n      jump\t// in\n    tag_51:\n      pop\n        /* \"FundMe/FundMe.sol\":2718:2734  bool callSuccess */\n      0x00\n        /* \"FundMe/FundMe.sol\":2748:2758  msg.sender */\n      caller\n        /* \"FundMe/FundMe.sol\":2740:2764  payable(msg.sender).call */\n      0xffffffffffffffffffffffffffffffffffffffff\n      and\n        /* \"FundMe/FundMe.sol\":2785:2806  address(this).balance */\n      selfbalance\n        /* \"FundMe/FundMe.sol\":2740:2820  payable(msg.sender).call{... */\n      mload(0x40)\n      tag_53\n      swap1\n      tag_54\n      jump\t// in\n    tag_53:\n      0x00\n      mload(0x40)\n      dup1\n      dup4\n      sub\n      dup2\n      dup6\n      dup8\n      gas\n      call\n      swap3\n      pop\n      pop\n      pop\n      returndatasize\n      dup1\n      0x00\n      dup2\n      eq\n      tag_57\n      jumpi\n      mload(0x40)\n      swap2\n      pop\n      and(add(returndatasize, 0x3f), not(0x1f))\n      dup3\n      add\n      0x40\n      mstore\n      returndatasize\n      dup3\n      mstore\n      returndatasize\n      0x00\n      0x20\n      dup5\n      add\n      returndatacopy\n      jump(tag_56)\n    tag_57:\n      0x60\n      swap2\n      pop\n    tag_56:\n      pop\n        /* \"FundMe/FundMe.sol\":2717:2820  (bool callSuccess, ) = payable(msg.sender).call{... */\n      pop\n      swap1\n      pop\n        /* \"FundMe/FundMe.sol\":2838:2849  callSuccess */\n      dup1\n        /* \"FundMe/FundMe.sol\":2830:2865  require(callSuccess, \"call failed\") */\n      tag_58\n      jumpi\n      mload(0x40)\n      0x08c379a000000000000000000000000000000000000000000000000000000000\n      dup2\n      mstore\n      0x04\n      add\n      tag_59\n      swap1\n      tag_60\n      jump\t// in\n    tag_59:\n      mload(0x40)\n      dup1\n      swap2\n      sub\n      swap1\n      revert\n    tag_58:\n        /* \"FundMe/FundMe.sol\":1461:2872  {... */\n      pop\n        /* \"FundMe/FundMe.sol\":1424:2872  function withdraw() public onlyOwner {... */\n      jump\t// out\n        /* \"FundMe/FundMe.sol\":535:591  mapping(address => uint256) public addressToAmountFunded */\n    tag_20:\n      mstore(0x20, 0x02)\n      dup1\n      0x00\n      mstore\n      keccak256(0x00, 0x40)\n      0x00\n      swap2\n      pop\n      swap1\n      pop\n      sload\n      dup2\n      jump\t// out\n        /* \"FundMe/FundMe.sol\":597:617  address public owner */\n    tag_24:\n      0x03\n      0x00\n      swap1\n      sload\n      swap1\n      0x0100\n      exp\n      swap1\n      div\n      0xffffffffffffffffffffffffffffffffffffffff\n      and\n      dup2\n      jump\t// out\n        /* \"FundMe/FundMe.sol\":769:1418  function fund() public payable {... */\n    tag_28:\n        /* \"FundMe/FundMe.sol\":1115:1125  minimumUSD */\n      sload(0x00)\n        /* \"FundMe/FundMe.sol\":1082:1111  msg.value.getConversionRate() */\n      tag_62\n        /* \"FundMe/FundMe.sol\":1082:1091  msg.value */\n      callvalue\n        /* \"FundMe/FundMe.sol\":1082:1109  msg.value.getConversionRate */\n      tag_63\n        /* \"FundMe/FundMe.sol\":1082:1111  msg.value.getConversionRate() */\n      jump\t// in\n    tag_62:\n        /* \"FundMe/FundMe.sol\":1082:1125  msg.value.getConversionRate() >= minimumUSD */\n      lt\n      iszero\n        /* \"FundMe/FundMe.sol\":1061:1173  require(... */\n      tag_64\n      jumpi\n      mload(0x40)\n      0x08c379a000000000000000000000000000000000000000000000000000000000\n      dup2\n      mstore\n      0x04\n      add\n      tag_65\n      swap1\n      tag_66\n      jump\t// in\n    tag_65:\n      mload(0x40)\n      dup1\n      swap2\n      sub\n      swap1\n      revert\n    tag_64:\n        /* \"FundMe/FundMe.sol\":1238:1245  funders */\n      0x01\n        /* \"FundMe/FundMe.sol\":1251:1261  msg.sender */\n      caller\n        /* \"FundMe/FundMe.sol\":1238:1262  funders.push(msg.sender) */\n      swap1\n      dup1\n      0x01\n      dup2\n      sload\n      add\n      dup1\n      dup3\n      sstore\n      dup1\n      swap2\n      pop\n      pop\n      0x01\n      swap1\n      sub\n      swap1\n      0x00\n      mstore\n      keccak256(0x00, 0x20)\n      add\n      0x00\n      swap1\n      swap2\n      swap1\n      swap2\n      swap1\n      swap2\n      0x0100\n      exp\n      dup2\n      sload\n      dup2\n      0xffffffffffffffffffffffffffffffffffffffff\n      mul\n      not\n      and\n      swap1\n      dup4\n      0xffffffffffffffffffffffffffffffffffffffff\n      and\n      mul\n      or\n      swap1\n      sstore\n      pop\n        /* \"FundMe/FundMe.sol\":1402:1411  msg.value */\n      callvalue\n        /* \"FundMe/FundMe.sol\":1365:1386  addressToAmountFunded */\n      0x02\n        /* \"FundMe/FundMe.sol\":1365:1398  addressToAmountFunded[msg.sender] */\n      0x00\n        /* \"FundMe/FundMe.sol\":1387:1397  msg.sender */\n      caller\n        /* \"FundMe/FundMe.sol\":1365:1398  addressToAmountFunded[msg.sender] */\n      0xffffffffffffffffffffffffffffffffffffffff\n      and\n      0xffffffffffffffffffffffffffffffffffffffff\n      and\n      dup2\n      mstore\n      0x20\n      add\n      swap1\n      dup2\n      mstore\n      0x20\n      add\n      0x00\n      keccak256\n      0x00\n        /* \"FundMe/FundMe.sol\":1365:1411  addressToAmountFunded[msg.sender] += msg.value */\n      dup3\n      dup3\n      sload\n      tag_68\n      swap2\n      swap1\n      tag_69\n      jump\t// in\n    tag_68:\n      swap3\n      pop\n      pop\n      dup2\n      swap1\n      sstore\n      pop\n        /* \"FundMe/FundMe.sol\":769:1418  function fund() public payable {... */\n      jump\t// out\n        /* \"FundMe/FundMe.sol\":505:529  address[] public funders */\n    tag_33:\n      0x01\n      dup2\n      dup2\n      sload\n      dup2\n      lt\n      tag_70\n      jumpi\n      0x00\n      dup1\n      revert\n    tag_70:\n      swap1\n      0x00\n      mstore\n      keccak256(0x00, 0x20)\n      add\n      0x00\n      swap2\n      pop\n      sload\n      swap1\n      0x0100\n      exp\n      swap1\n      div\n      0xffffffffffffffffffffffffffffffffffffffff\n      and\n      dup2\n      jump\t// out\n        /* \"FundMe/PriceConverter.sol\":685:1057  function getConversionRate(uint256 ethAmount)... */\n    tag_63:\n        /* \"FundMe/PriceConverter.sol\":778:785  uint256 */\n      0x00\n        /* \"FundMe/PriceConverter.sol\":801:817  uint256 ethPrice */\n      dup1\n        /* \"FundMe/PriceConverter.sol\":820:830  getPrice() */\n      tag_73\n        /* \"FundMe/PriceConverter.sol\":820:828  getPrice */\n      tag_74\n        /* \"FundMe/PriceConverter.sol\":820:830  getPrice() */\n      jump\t// in\n    tag_73:\n        /* \"FundMe/PriceConverter.sol\":801:830  uint256 ethPrice = getPrice() */\n      swap1\n      pop\n        /* \"FundMe/PriceConverter.sol\":840:862  uint256 ethAmountInUsd */\n      0x00\n        /* \"FundMe/PriceConverter.sol\":890:894  1e18 */\n      0x0de0b6b3a7640000\n        /* \"FundMe/PriceConverter.sol\":878:886  ethPrice */\n      dup3\n        /* \"FundMe/PriceConverter.sol\":866:875  ethAmount */\n      dup6\n        /* \"FundMe/PriceConverter.sol\":866:886  ethAmount * ethPrice */\n      tag_75\n      swap2\n      swap1\n      tag_76\n      jump\t// in\n    tag_75:\n        /* \"FundMe/PriceConverter.sol\":865:894  (ethAmount * ethPrice) / 1e18 */\n      tag_77\n      swap2\n      swap1\n      tag_78\n      jump\t// in\n    tag_77:\n        /* \"FundMe/PriceConverter.sol\":840:894  uint256 ethAmountInUsd = (ethAmount * ethPrice) / 1e18 */\n      swap1\n      pop\n        /* \"FundMe/PriceConverter.sol\":1036:1050  ethAmountInUsd */\n      dup1\n        /* \"FundMe/PriceConverter.sol\":1029:1050  return ethAmountInUsd */\n      swap3\n      pop\n      pop\n      pop\n        /* \"FundMe/PriceConverter.sol\":685:1057  function getConversionRate(uint256 ethAmount)... */\n      swap2\n      swap1\n      pop\n      jump\t// out\n        /* \"FundMe/PriceConverter.sol\":200:679  function getPrice() internal view returns (uint256) {... */\n    tag_74:\n        /* \"FundMe/PriceConverter.sol\":243:250  uint256 */\n      0x00\n        /* \"FundMe/PriceConverter.sol\":341:372  AggregatorV3Interface priceFeed */\n      dup1\n        /* \"FundMe/PriceConverter.sol\":410:452  0x694AA1769357215DE4FAC081bf1f309aDC325306 */\n      0x694aa1769357215de4fac081bf1f309adc325306\n        /* \"FundMe/PriceConverter.sol\":341:462  AggregatorV3Interface priceFeed = AggregatorV3Interface(... */\n      swap1\n      pop\n        /* \"FundMe/PriceConverter.sol\":475:487  int256 price */\n      0x00\n        /* \"FundMe/PriceConverter.sol\":497:506  priceFeed */\n      dup2\n        /* \"FundMe/PriceConverter.sol\":497:522  priceFeed.latestRoundData */\n      0xffffffffffffffffffffffffffffffffffffffff\n      and\n      0xfeaf968c\n        /* \"FundMe/PriceConverter.sol\":497:524  priceFeed.latestRoundData() */\n      mload(0x40)\n      dup2\n      0xffffffff\n      and\n      0xe0\n      shl\n      dup2\n      mstore\n      0x04\n      add\n      0xa0\n      mload(0x40)\n      dup1\n      dup4\n      sub\n      dup2\n      dup7\n      gas\n      staticcall\n      iszero\n      dup1\n      iszero\n      tag_81\n      jumpi\n      returndatasize\n      0x00\n      dup1\n      returndatacopy\n      revert(0x00, returndatasize)\n    tag_81:\n      pop\n      pop\n      pop\n      pop\n      mload(0x40)\n      returndatasize\n      not(0x1f)\n      0x1f\n      dup3\n      add\n      and\n      dup3\n      add\n      dup1\n      0x40\n      mstore\n      pop\n      dup2\n      add\n      swap1\n      tag_82\n      swap2\n      swap1\n      tag_83\n      jump\t// in\n    tag_82:\n        /* \"FundMe/PriceConverter.sol\":472:524  (, int256 price, , , ) = priceFeed.latestRoundData() */\n      pop\n      pop\n      pop\n      swap2\n      pop\n      pop\n        /* \"FundMe/PriceConverter.sol\":667:671  1e10 */\n      0x02540be400\n        /* \"FundMe/PriceConverter.sol\":659:664  price */\n      dup2\n        /* \"FundMe/PriceConverter.sol\":659:671  price * 1e10 */\n      tag_84\n      swap2\n      swap1\n      tag_85\n      jump\t// in\n    tag_84:\n        /* \"FundMe/PriceConverter.sol\":644:672  return uint256(price * 1e10) */\n      swap3\n      pop\n      pop\n      pop\n        /* \"FundMe/PriceConverter.sol\":200:679  function getPrice() internal view returns (uint256) {... */\n      swap1\n      jump\t// out\n    tag_52:\n      dup3\n      dup1\n      sload\n      dup3\n      dup3\n      sstore\n      swap1\n      0x00\n      mstore\n      keccak256(0x00, 0x20)\n      swap1\n      dup2\n      add\n      swap3\n      dup3\n      iszero\n      tag_86\n      jumpi\n      swap2\n      0x20\n      mul\n      dup3\n      add\n    tag_87:\n      dup3\n      dup2\n      gt\n      iszero\n      tag_88\n      jumpi\n      dup3\n      mload\n      dup3\n      exp(0x0100, 0x00)\n      dup2\n      sload\n      dup2\n      0xffffffffffffffffffffffffffffffffffffffff\n      mul\n      not\n      and\n      swap1\n      dup4\n      0xffffffffffffffffffffffffffffffffffffffff\n      and\n      mul\n      or\n      swap1\n      sstore\n      pop\n      swap2\n      0x20\n      add\n      swap2\n      swap1\n      0x01\n      add\n      swap1\n      jump(tag_87)\n    tag_88:\n    tag_86:\n      pop\n      swap1\n      pop\n      tag_89\n      swap2\n      swap1\n      tag_90\n      jump\t// in\n    tag_89:\n      pop\n      swap1\n      jump\t// out\n    tag_90:\n    tag_91:\n      dup1\n      dup3\n      gt\n      iszero\n      tag_92\n      jumpi\n      0x00\n      dup2\n      0x00\n      swap1\n      sstore\n      pop\n      0x01\n      add\n      jump(tag_91)\n    tag_92:\n      pop\n      swap1\n      jump\t// out\n        /* \"#utility.yul\":7:84   */\n    tag_93:\n        /* \"#utility.yul\":44:51   */\n      0x00\n        /* \"#utility.yul\":73:78   */\n      dup2\n        /* \"#utility.yul\":62:78   */\n      swap1\n      pop\n        /* \"#utility.yul\":7:84   */\n      swap2\n      swap1\n      pop\n      jump\t// out\n        /* \"#utility.yul\":90:208   */\n    tag_94:\n        /* \"#utility.yul\":177:201   */\n      tag_127\n        /* \"#utility.yul\":195:200   */\n      dup2\n        /* \"#utility.yul\":177:201   */\n      tag_93\n      jump\t// in\n    tag_127:\n        /* \"#utility.yul\":172:175   */\n      dup3\n        /* \"#utility.yul\":165:202   */\n      mstore\n        /* \"#utility.yul\":90:208   */\n      pop\n      pop\n      jump\t// out\n        /* \"#utility.yul\":214:436   */\n    tag_12:\n        /* \"#utility.yul\":307:311   */\n      0x00\n        /* \"#utility.yul\":345:347   */\n      0x20\n        /* \"#utility.yul\":334:343   */\n      dup3\n        /* \"#utility.yul\":330:348   */\n      add\n        /* \"#utility.yul\":322:348   */\n      swap1\n      pop\n        /* \"#utility.yul\":358:429   */\n      tag_129\n        /* \"#utility.yul\":426:427   */\n      0x00\n        /* \"#utility.yul\":415:424   */\n      dup4\n        /* \"#utility.yul\":411:428   */\n      add\n        /* \"#utility.yul\":402:408   */\n      dup5\n        /* \"#utility.yul\":358:429   */\n      tag_94\n      jump\t// in\n    tag_129:\n        /* \"#utility.yul\":214:436   */\n      swap3\n      swap2\n      pop\n      pop\n      jump\t// out\n        /* \"#utility.yul\":523:640   */\n    tag_96:\n        /* \"#utility.yul\":632:633   */\n      0x00\n        /* \"#utility.yul\":629:630   */\n      dup1\n        /* \"#utility.yul\":622:634   */\n      revert\n        /* \"#utility.yul\":769:895   */\n    tag_98:\n        /* \"#utility.yul\":806:813   */\n      0x00\n        /* \"#utility.yul\":846:888   */\n      0xffffffffffffffffffffffffffffffffffffffff\n        /* \"#utility.yul\":839:844   */\n      dup3\n        /* \"#utility.yul\":835:889   */\n      and\n        /* \"#utility.yul\":824:889   */\n      swap1\n      pop\n        /* \"#utility.yul\":769:895   */\n      swap2\n      swap1\n      pop\n      jump\t// out\n        /* \"#utility.yul\":901:997   */\n    tag_99:\n        /* \"#utility.yul\":938:945   */\n      0x00\n        /* \"#utility.yul\":967:991   */\n      tag_135\n        /* \"#utility.yul\":985:990   */\n      dup3\n        /* \"#utility.yul\":967:991   */\n      tag_98\n      jump\t// in\n    tag_135:\n        /* \"#utility.yul\":956:991   */\n      swap1\n      pop\n        /* \"#utility.yul\":901:997   */\n      swap2\n      swap1\n      pop\n      jump\t// out\n        /* \"#utility.yul\":1003:1125   */\n    tag_100:\n        /* \"#utility.yul\":1076:1100   */\n      tag_137\n        /* \"#utility.yul\":1094:1099   */\n      dup2\n        /* \"#utility.yul\":1076:1100   */\n      tag_99\n      jump\t// in\n    tag_137:\n        /* \"#utility.yul\":1069:1074   */\n      dup2\n        /* \"#utility.yul\":1066:1101   */\n      eq\n        /* \"#utility.yul\":1056:1119   */\n      tag_138\n      jumpi\n        /* \"#utility.yul\":1115:1116   */\n      0x00\n        /* \"#utility.yul\":1112:1113   */\n      dup1\n        /* \"#utility.yul\":1105:1117   */\n      revert\n        /* \"#utility.yul\":1056:1119   */\n    tag_138:\n        /* \"#utility.yul\":1003:1125   */\n      pop\n      jump\t// out\n        /* \"#utility.yul\":1131:1270   */\n    tag_101:\n        /* \"#utility.yul\":1177:1182   */\n      0x00\n        /* \"#utility.yul\":1215:1221   */\n      dup2\n        /* \"#utility.yul\":1202:1222   */\n      calldataload\n        /* \"#utility.yul\":1193:1222   */\n      swap1\n      pop\n        /* \"#utility.yul\":1231:1264   */\n      tag_140\n        /* \"#utility.yul\":1258:1263   */\n      dup2\n        /* \"#utility.yul\":1231:1264   */\n      tag_100\n      jump\t// in\n    tag_140:\n        /* \"#utility.yul\":1131:1270   */\n      swap3\n      swap2\n      pop\n      pop\n      jump\t// out\n        /* \"#utility.yul\":1276:1605   */\n    tag_19:\n        /* \"#utility.yul\":1335:1341   */\n      0x00\n        /* \"#utility.yul\":1384:1386   */\n      0x20\n        /* \"#utility.yul\":1372:1381   */\n      dup3\n        /* \"#utility.yul\":1363:1370   */\n      dup5\n        /* \"#utility.yul\":1359:1382   */\n      sub\n        /* \"#utility.yul\":1355:1387   */\n      slt\n        /* \"#utility.yul\":1352:1471   */\n      iszero\n      tag_142\n      jumpi\n        /* \"#utility.yul\":1390:1469   */\n      tag_143\n      tag_96\n      jump\t// in\n    tag_143:\n        /* \"#utility.yul\":1352:1471   */\n    tag_142:\n        /* \"#utility.yul\":1510:1511   */\n      0x00\n        /* \"#utility.yul\":1535:1588   */\n      tag_144\n        /* \"#utility.yul\":1580:1587   */\n      dup5\n        /* \"#utility.yul\":1571:1577   */\n      dup3\n        /* \"#utility.yul\":1560:1569   */\n      dup6\n        /* \"#utility.yul\":1556:1578   */\n      add\n        /* \"#utility.yul\":1535:1588   */\n      tag_101\n      jump\t// in\n    tag_144:\n        /* \"#utility.yul\":1525:1588   */\n      swap2\n      pop\n        /* \"#utility.yul\":1481:1598   */\n      pop\n        /* \"#utility.yul\":1276:1605   */\n      swap3\n      swap2\n      pop\n      pop\n      jump\t// out\n        /* \"#utility.yul\":1611:1729   */\n    tag_102:\n        /* \"#utility.yul\":1698:1722   */\n      tag_146\n        /* \"#utility.yul\":1716:1721   */\n      dup2\n        /* \"#utility.yul\":1698:1722   */\n      tag_99\n      jump\t// in\n    tag_146:\n        /* \"#utility.yul\":1693:1696   */\n      dup3\n        /* \"#utility.yul\":1686:1723   */\n      mstore\n        /* \"#utility.yul\":1611:1729   */\n      pop\n      pop\n      jump\t// out\n        /* \"#utility.yul\":1735:1957   */\n    tag_26:\n        /* \"#utility.yul\":1828:1832   */\n      0x00\n        /* \"#utility.yul\":1866:1868   */\n      0x20\n        /* \"#utility.yul\":1855:1864   */\n      dup3\n        /* \"#utility.yul\":1851:1869   */\n      add\n        /* \"#utility.yul\":1843:1869   */\n      swap1\n      pop\n        /* \"#utility.yul\":1879:1950   */\n      tag_148\n        /* \"#utility.yul\":1947:1948   */\n      0x00\n        /* \"#utility.yul\":1936:1945   */\n      dup4\n        /* \"#utility.yul\":1932:1949   */\n      add\n        /* \"#utility.yul\":1923:1929   */\n      dup5\n        /* \"#utility.yul\":1879:1950   */\n      tag_102\n      jump\t// in\n    tag_148:\n        /* \"#utility.yul\":1735:1957   */\n      swap3\n      swap2\n      pop\n      pop\n      jump\t// out\n        /* \"#utility.yul\":1963:2085   */\n    tag_103:\n        /* \"#utility.yul\":2036:2060   */\n      tag_150\n        /* \"#utility.yul\":2054:2059   */\n      dup2\n        /* \"#utility.yul\":2036:2060   */\n      tag_93\n      jump\t// in\n    tag_150:\n        /* \"#utility.yul\":2029:2034   */\n      dup2\n        /* \"#utility.yul\":2026:2061   */\n      eq\n        /* \"#utility.yul\":2016:2079   */\n      tag_151\n      jumpi\n        /* \"#utility.yul\":2075:2076   */\n      0x00\n        /* \"#utility.yul\":2072:2073   */\n      dup1\n        /* \"#utility.yul\":2065:2077   */\n      revert\n        /* \"#utility.yul\":2016:2079   */\n    tag_151:\n        /* \"#utility.yul\":1963:2085   */\n      pop\n      jump\t// out\n        /* \"#utility.yul\":2091:2230   */\n    tag_104:\n        /* \"#utility.yul\":2137:2142   */\n      0x00\n        /* \"#utility.yul\":2175:2181   */\n      dup2\n        /* \"#utility.yul\":2162:2182   */\n      calldataload\n        /* \"#utility.yul\":2153:2182   */\n      swap1\n      pop\n        /* \"#utility.yul\":2191:2224   */\n      tag_153\n        /* \"#utility.yul\":2218:2223   */\n      dup2\n        /* \"#utility.yul\":2191:2224   */\n      tag_103\n      jump\t// in\n    tag_153:\n        /* \"#utility.yul\":2091:2230   */\n      swap3\n      swap2\n      pop\n      pop\n      jump\t// out\n        /* \"#utility.yul\":2236:2565   */\n    tag_32:\n        /* \"#utility.yul\":2295:2301   */\n      0x00\n        /* \"#utility.yul\":2344:2346   */\n      0x20\n        /* \"#utility.yul\":2332:2341   */\n      dup3\n        /* \"#utility.yul\":2323:2330   */\n      dup5\n        /* \"#utility.yul\":2319:2342   */\n      sub\n        /* \"#utility.yul\":2315:2347   */\n      slt\n        /* \"#utility.yul\":2312:2431   */\n      iszero\n      tag_155\n      jumpi\n        /* \"#utility.yul\":2350:2429   */\n      tag_156\n      tag_96\n      jump\t// in\n    tag_156:\n        /* \"#utility.yul\":2312:2431   */\n    tag_155:\n        /* \"#utility.yul\":2470:2471   */\n      0x00\n        /* \"#utility.yul\":2495:2548   */\n      tag_157\n        /* \"#utility.yul\":2540:2547   */\n      dup5\n        /* \"#utility.yul\":2531:2537   */\n      dup3\n        /* \"#utility.yul\":2520:2529   */\n      dup6\n        /* \"#utility.yul\":2516:2538   */\n      add\n        /* \"#utility.yul\":2495:2548   */\n      tag_104\n      jump\t// in\n    tag_157:\n        /* \"#utility.yul\":2485:2548   */\n      swap2\n      pop\n        /* \"#utility.yul\":2441:2558   */\n      pop\n        /* \"#utility.yul\":2236:2565   */\n      swap3\n      swap2\n      pop\n      pop\n      jump\t// out\n        /* \"#utility.yul\":2571:2740   */\n    tag_105:\n        /* \"#utility.yul\":2655:2666   */\n      0x00\n        /* \"#utility.yul\":2689:2695   */\n      dup3\n        /* \"#utility.yul\":2684:2687   */\n      dup3\n        /* \"#utility.yul\":2677:2696   */\n      mstore\n        /* \"#utility.yul\":2729:2733   */\n      0x20\n        /* \"#utility.yul\":2724:2727   */\n      dup3\n        /* \"#utility.yul\":2720:2734   */\n      add\n        /* \"#utility.yul\":2705:2734   */\n      swap1\n      pop\n        /* \"#utility.yul\":2571:2740   */\n      swap3\n      swap2\n      pop\n      pop\n      jump\t// out\n        /* \"#utility.yul\":2746:2915   */\n    tag_106:\n        /* \"#utility.yul\":2886:2907   */\n      0x53656e646572206973206e6f74206f776e657200000000000000000000000000\n        /* \"#utility.yul\":2882:2883   */\n      0x00\n        /* \"#utility.yul\":2874:2880   */\n      dup3\n        /* \"#utility.yul\":2870:2884   */\n      add\n        /* \"#utility.yul\":2863:2908   */\n      mstore\n        /* \"#utility.yul\":2746:2915   */\n      pop\n      jump\t// out\n        /* \"#utility.yul\":2921:3287   */\n    tag_107:\n        /* \"#utility.yul\":3063:3066   */\n      0x00\n        /* \"#utility.yul\":3084:3151   */\n      tag_161\n        /* \"#utility.yul\":3148:3150   */\n      0x13\n        /* \"#utility.yul\":3143:3146   */\n      dup4\n        /* \"#utility.yul\":3084:3151   */\n      tag_105\n      jump\t// in\n    tag_161:\n        /* \"#utility.yul\":3077:3151   */\n      swap2\n      pop\n        /* \"#utility.yul\":3160:3253   */\n      tag_162\n        /* \"#utility.yul\":3249:3252   */\n      dup3\n        /* \"#utility.yul\":3160:3253   */\n      tag_106\n      jump\t// in\n    tag_162:\n        /* \"#utility.yul\":3278:3280   */\n      0x20\n        /* \"#utility.yul\":3273:3276   */\n      dup3\n        /* \"#utility.yul\":3269:3281   */\n      add\n        /* \"#utility.yul\":3262:3281   */\n      swap1\n      pop\n        /* \"#utility.yul\":2921:3287   */\n      swap2\n      swap1\n      pop\n      jump\t// out\n        /* \"#utility.yul\":3293:3712   */\n    tag_38:\n        /* \"#utility.yul\":3459:3463   */\n      0x00\n        /* \"#utility.yul\":3497:3499   */\n      0x20\n        /* \"#utility.yul\":3486:3495   */\n      dup3\n        /* \"#utility.yul\":3482:3500   */\n      add\n        /* \"#utility.yul\":3474:3500   */\n      swap1\n      pop\n        /* \"#utility.yul\":3546:3555   */\n      dup2\n        /* \"#utility.yul\":3540:3544   */\n      dup2\n        /* \"#utility.yul\":3536:3556   */\n      sub\n        /* \"#utility.yul\":3532:3533   */\n      0x00\n        /* \"#utility.yul\":3521:3530   */\n      dup4\n        /* \"#utility.yul\":3517:3534   */\n      add\n        /* \"#utility.yul\":3510:3557   */\n      mstore\n        /* \"#utility.yul\":3574:3705   */\n      tag_164\n        /* \"#utility.yul\":3700:3704   */\n      dup2\n        /* \"#utility.yul\":3574:3705   */\n      tag_107\n      jump\t// in\n    tag_164:\n        /* \"#utility.yul\":3566:3705   */\n      swap1\n      pop\n        /* \"#utility.yul\":3293:3712   */\n      swap2\n      swap1\n      pop\n      jump\t// out\n        /* \"#utility.yul\":3718:3898   */\n    tag_45:\n        /* \"#utility.yul\":3766:3843   */\n      0x4e487b7100000000000000000000000000000000000000000000000000000000\n        /* \"#utility.yul\":3763:3764   */\n      0x00\n        /* \"#utility.yul\":3756:3844   */\n      mstore\n        /* \"#utility.yul\":3863:3867   */\n      0x32\n        /* \"#utility.yul\":3860:3861   */\n      0x04\n        /* \"#utility.yul\":3853:3868   */\n      mstore\n        /* \"#utility.yul\":3887:3891   */\n      0x24\n        /* \"#utility.yul\":3884:3885   */\n      0x00\n        /* \"#utility.yul\":3877:3892   */\n      revert\n        /* \"#utility.yul\":3904:4084   */\n    tag_49:\n        /* \"#utility.yul\":3952:4029   */\n      0x4e487b7100000000000000000000000000000000000000000000000000000000\n        /* \"#utility.yul\":3949:3950   */\n      0x00\n        /* \"#utility.yul\":3942:4030   */\n      mstore\n        /* \"#utility.yul\":4049:4053   */\n      0x41\n        /* \"#utility.yul\":4046:4047   */\n      0x04\n        /* \"#utility.yul\":4039:4054   */\n      mstore\n        /* \"#utility.yul\":4073:4077   */\n      0x24\n        /* \"#utility.yul\":4070:4071   */\n      0x00\n        /* \"#utility.yul\":4063:4078   */\n      revert\n        /* \"#utility.yul\":4090:4237   */\n    tag_108:\n        /* \"#utility.yul\":4191:4202   */\n      0x00\n        /* \"#utility.yul\":4228:4231   */\n      dup2\n        /* \"#utility.yul\":4213:4231   */\n      swap1\n      pop\n        /* \"#utility.yul\":4090:4237   */\n      swap3\n      swap2\n      pop\n      pop\n      jump\t// out\n        /* \"#utility.yul\":4243:4357   */\n    tag_109:\n      pop\n      jump\t// out\n        /* \"#utility.yul\":4363:4761   */\n    tag_110:\n        /* \"#utility.yul\":4522:4525   */\n      0x00\n        /* \"#utility.yul\":4543:4626   */\n      tag_170\n        /* \"#utility.yul\":4624:4625   */\n      0x00\n        /* \"#utility.yul\":4619:4622   */\n      dup4\n        /* \"#utility.yul\":4543:4626   */\n      tag_108\n      jump\t// in\n    tag_170:\n        /* \"#utility.yul\":4536:4626   */\n      swap2\n      pop\n        /* \"#utility.yul\":4635:4728   */\n      tag_171\n        /* \"#utility.yul\":4724:4727   */\n      dup3\n        /* \"#utility.yul\":4635:4728   */\n      tag_109\n      jump\t// in\n    tag_171:\n        /* \"#utility.yul\":4753:4754   */\n      0x00\n        /* \"#utility.yul\":4748:4751   */\n      dup3\n        /* \"#utility.yul\":4744:4755   */\n      add\n        /* \"#utility.yul\":4737:4755   */\n      swap1\n      pop\n        /* \"#utility.yul\":4363:4761   */\n      swap2\n      swap1\n      pop\n      jump\t// out\n        /* \"#utility.yul\":4767:5146   */\n    tag_54:\n        /* \"#utility.yul\":4951:4954   */\n      0x00\n        /* \"#utility.yul\":4973:5120   */\n      tag_173\n        /* \"#utility.yul\":5116:5119   */\n      dup3\n        /* \"#utility.yul\":4973:5120   */\n      tag_110\n      jump\t// in\n    tag_173:\n        /* \"#utility.yul\":4966:5120   */\n      swap2\n      pop\n        /* \"#utility.yul\":5137:5140   */\n      dup2\n        /* \"#utility.yul\":5130:5140   */\n      swap1\n      pop\n        /* \"#utility.yul\":4767:5146   */\n      swap2\n      swap1\n      pop\n      jump\t// out\n        /* \"#utility.yul\":5152:5313   */\n    tag_111:\n        /* \"#utility.yul\":5292:5305   */\n      0x63616c6c206661696c6564000000000000000000000000000000000000000000\n        /* \"#utility.yul\":5288:5289   */\n      0x00\n        /* \"#utility.yul\":5280:5286   */\n      dup3\n        /* \"#utility.yul\":5276:5290   */\n      add\n        /* \"#utility.yul\":5269:5306   */\n      mstore\n        /* \"#utility.yul\":5152:5313   */\n      pop\n      jump\t// out\n        /* \"#utility.yul\":5319:5685   */\n    tag_112:\n        /* \"#utility.yul\":5461:5464   */\n      0x00\n        /* \"#utility.yul\":5482:5549   */\n      tag_176\n        /* \"#utility.yul\":5546:5548   */\n      0x0b\n        /* \"#utility.yul\":5541:5544   */\n      dup4\n        /* \"#utility.yul\":5482:5549   */\n      tag_105\n      jump\t// in\n    tag_176:\n        /* \"#utility.yul\":5475:5549   */\n      swap2\n      pop\n        /* \"#utility.yul\":5558:5651   */\n      tag_177\n        /* \"#utility.yul\":5647:5650   */\n      dup3\n        /* \"#utility.yul\":5558:5651   */\n      tag_111\n      jump\t// in\n    tag_177:\n        /* \"#utility.yul\":5676:5678   */\n      0x20\n        /* \"#utility.yul\":5671:5674   */\n      dup3\n        /* \"#utility.yul\":5667:5679   */\n      add\n        /* \"#utility.yul\":5660:5679   */\n      swap1\n      pop\n        /* \"#utility.yul\":5319:5685   */\n      swap2\n      swap1\n      pop\n      jump\t// out\n        /* \"#utility.yul\":5691:6110   */\n    tag_60:\n        /* \"#utility.yul\":5857:5861   */\n      0x00\n        /* \"#utility.yul\":5895:5897   */\n      0x20\n        /* \"#utility.yul\":5884:5893   */\n      dup3\n        /* \"#utility.yul\":5880:5898   */\n      add\n        /* \"#utility.yul\":5872:5898   */\n      swap1\n      pop\n        /* \"#utility.yul\":5944:5953   */\n      dup2\n        /* \"#utility.yul\":5938:5942   */\n      dup2\n        /* \"#utility.yul\":5934:5954   */\n      sub\n        /* \"#utility.yul\":5930:5931   */\n      0x00\n        /* \"#utility.yul\":5919:5928   */\n      dup4\n        /* \"#utility.yul\":5915:5932   */\n      add\n        /* \"#utility.yul\":5908:5955   */\n      mstore\n        /* \"#utility.yul\":5972:6103   */\n      tag_179\n        /* \"#utility.yul\":6098:6102   */\n      dup2\n        /* \"#utility.yul\":5972:6103   */\n      tag_112\n      jump\t// in\n    tag_179:\n        /* \"#utility.yul\":5964:6103   */\n      swap1\n      pop\n        /* \"#utility.yul\":5691:6110   */\n      swap2\n      swap1\n      pop\n      jump\t// out\n        /* \"#utility.yul\":6116:6288   */\n    tag_113:\n        /* \"#utility.yul\":6256:6280   */\n      0x6469646e27742073656e7420656e6f7567682057656900000000000000000000\n        /* \"#utility.yul\":6252:6253   */\n      0x00\n        /* \"#utility.yul\":6244:6250   */\n      dup3\n        /* \"#utility.yul\":6240:6254   */\n      add\n        /* \"#utility.yul\":6233:6281   */\n      mstore\n        /* \"#utility.yul\":6116:6288   */\n      pop\n      jump\t// out\n        /* \"#utility.yul\":6294:6660   */\n    tag_114:\n        /* \"#utility.yul\":6436:6439   */\n      0x00\n        /* \"#utility.yul\":6457:6524   */\n      tag_182\n        /* \"#utility.yul\":6521:6523   */\n      0x16\n        /* \"#utility.yul\":6516:6519   */\n      dup4\n        /* \"#utility.yul\":6457:6524   */\n      tag_105\n      jump\t// in\n    tag_182:\n        /* \"#utility.yul\":6450:6524   */\n      swap2\n      pop\n        /* \"#utility.yul\":6533:6626   */\n      tag_183\n        /* \"#utility.yul\":6622:6625   */\n      dup3\n        /* \"#utility.yul\":6533:6626   */\n      tag_113\n      jump\t// in\n    tag_183:\n        /* \"#utility.yul\":6651:6653   */\n      0x20\n        /* \"#utility.yul\":6646:6649   */\n      dup3\n        /* \"#utility.yul\":6642:6654   */\n      add\n        /* \"#utility.yul\":6635:6654   */\n      swap1\n      pop\n        /* \"#utility.yul\":6294:6660   */\n      swap2\n      swap1\n      pop\n      jump\t// out\n        /* \"#utility.yul\":6666:7085   */\n    tag_66:\n        /* \"#utility.yul\":6832:6836   */\n      0x00\n        /* \"#utility.yul\":6870:6872   */\n      0x20\n        /* \"#utility.yul\":6859:6868   */\n      dup3\n        /* \"#utility.yul\":6855:6873   */\n      add\n        /* \"#utility.yul\":6847:6873   */\n      swap1\n      pop\n        /* \"#utility.yul\":6919:6928   */\n      dup2\n        /* \"#utility.yul\":6913:6917   */\n      dup2\n        /* \"#utility.yul\":6909:6929   */\n      sub\n        /* \"#utility.yul\":6905:6906   */\n      0x00\n        /* \"#utility.yul\":6894:6903   */\n      dup4\n        /* \"#utility.yul\":6890:6907   */\n      add\n        /* \"#utility.yul\":6883:6930   */\n      mstore\n        /* \"#utility.yul\":6947:7078   */\n      tag_185\n        /* \"#utility.yul\":7073:7077   */\n      dup2\n        /* \"#utility.yul\":6947:7078   */\n      tag_114\n      jump\t// in\n    tag_185:\n        /* \"#utility.yul\":6939:7078   */\n      swap1\n      pop\n        /* \"#utility.yul\":6666:7085   */\n      swap2\n      swap1\n      pop\n      jump\t// out\n        /* \"#utility.yul\":7091:7271   */\n    tag_115:\n        /* \"#utility.yul\":7139:7216   */\n      0x4e487b7100000000000000000000000000000000000000000000000000000000\n        /* \"#utility.yul\":7136:7137   */\n      0x00\n        /* \"#utility.yul\":7129:7217   */\n      mstore\n        /* \"#utility.yul\":7236:7240   */\n      0x11\n        /* \"#utility.yul\":7233:7234   */\n      0x04\n        /* \"#utility.yul\":7226:7241   */\n      mstore\n        /* \"#utility.yul\":7260:7264   */\n      0x24\n        /* \"#utility.yul\":7257:7258   */\n      0x00\n        /* \"#utility.yul\":7250:7265   */\n      revert\n        /* \"#utility.yul\":7277:7468   */\n    tag_69:\n        /* \"#utility.yul\":7317:7320   */\n      0x00\n        /* \"#utility.yul\":7336:7356   */\n      tag_188\n        /* \"#utility.yul\":7354:7355   */\n      dup3\n        /* \"#utility.yul\":7336:7356   */\n      tag_93\n      jump\t// in\n    tag_188:\n        /* \"#utility.yul\":7331:7356   */\n      swap2\n      pop\n        /* \"#utility.yul\":7370:7390   */\n      tag_189\n        /* \"#utility.yul\":7388:7389   */\n      dup4\n        /* \"#utility.yul\":7370:7390   */\n      tag_93\n      jump\t// in\n    tag_189:\n        /* \"#utility.yul\":7365:7390   */\n      swap3\n      pop\n        /* \"#utility.yul\":7413:7414   */\n      dup3\n        /* \"#utility.yul\":7410:7411   */\n      dup3\n        /* \"#utility.yul\":7406:7415   */\n      add\n        /* \"#utility.yul\":7399:7415   */\n      swap1\n      pop\n        /* \"#utility.yul\":7434:7437   */\n      dup1\n        /* \"#utility.yul\":7431:7432   */\n      dup3\n        /* \"#utility.yul\":7428:7438   */\n      gt\n        /* \"#utility.yul\":7425:7461   */\n      iszero\n      tag_190\n      jumpi\n        /* \"#utility.yul\":7441:7459   */\n      tag_191\n      tag_115\n      jump\t// in\n    tag_191:\n        /* \"#utility.yul\":7425:7461   */\n    tag_190:\n        /* \"#utility.yul\":7277:7468   */\n      swap3\n      swap2\n      pop\n      pop\n      jump\t// out\n        /* \"#utility.yul\":7474:7884   */\n    tag_76:\n        /* \"#utility.yul\":7514:7521   */\n      0x00\n        /* \"#utility.yul\":7537:7557   */\n      tag_193\n        /* \"#utility.yul\":7555:7556   */\n      dup3\n        /* \"#utility.yul\":7537:7557   */\n      tag_93\n      jump\t// in\n    tag_193:\n        /* \"#utility.yul\":7532:7557   */\n      swap2\n      pop\n        /* \"#utility.yul\":7571:7591   */\n      tag_194\n        /* \"#utility.yul\":7589:7590   */\n      dup4\n        /* \"#utility.yul\":7571:7591   */\n      tag_93\n      jump\t// in\n    tag_194:\n        /* \"#utility.yul\":7566:7591   */\n      swap3\n      pop\n        /* \"#utility.yul\":7626:7627   */\n      dup3\n        /* \"#utility.yul\":7623:7624   */\n      dup3\n        /* \"#utility.yul\":7619:7628   */\n      mul\n        /* \"#utility.yul\":7648:7678   */\n      tag_195\n        /* \"#utility.yul\":7666:7677   */\n      dup2\n        /* \"#utility.yul\":7648:7678   */\n      tag_93\n      jump\t// in\n    tag_195:\n        /* \"#utility.yul\":7637:7678   */\n      swap2\n      pop\n        /* \"#utility.yul\":7827:7828   */\n      dup3\n        /* \"#utility.yul\":7818:7825   */\n      dup3\n        /* \"#utility.yul\":7814:7829   */\n      div\n        /* \"#utility.yul\":7811:7812   */\n      dup5\n        /* \"#utility.yul\":7808:7830   */\n      eq\n        /* \"#utility.yul\":7788:7789   */\n      dup4\n        /* \"#utility.yul\":7781:7790   */\n      iszero\n        /* \"#utility.yul\":7761:7844   */\n      or\n        /* \"#utility.yul\":7738:7877   */\n      tag_196\n      jumpi\n        /* \"#utility.yul\":7857:7875   */\n      tag_197\n      tag_115\n      jump\t// in\n    tag_197:\n        /* \"#utility.yul\":7738:7877   */\n    tag_196:\n        /* \"#utility.yul\":7522:7884   */\n      pop\n        /* \"#utility.yul\":7474:7884   */\n      swap3\n      swap2\n      pop\n      pop\n      jump\t// out\n        /* \"#utility.yul\":7890:8070   */\n    tag_116:\n        /* \"#utility.yul\":7938:8015   */\n      0x4e487b7100000000000000000000000000000000000000000000000000000000\n        /* \"#utility.yul\":7935:7936   */\n      0x00\n        /* \"#utility.yul\":7928:8016   */\n      mstore\n        /* \"#utility.yul\":8035:8039   */\n      0x12\n        /* \"#utility.yul\":8032:8033   */\n      0x04\n        /* \"#utility.yul\":8025:8040   */\n      mstore\n        /* \"#utility.yul\":8059:8063   */\n      0x24\n        /* \"#utility.yul\":8056:8057   */\n      0x00\n        /* \"#utility.yul\":8049:8064   */\n      revert\n        /* \"#utility.yul\":8076:8261   */\n    tag_78:\n        /* \"#utility.yul\":8116:8117   */\n      0x00\n        /* \"#utility.yul\":8133:8153   */\n      tag_200\n        /* \"#utility.yul\":8151:8152   */\n      dup3\n        /* \"#utility.yul\":8133:8153   */\n      tag_93\n      jump\t// in\n    tag_200:\n        /* \"#utility.yul\":8128:8153   */\n      swap2\n      pop\n        /* \"#utility.yul\":8167:8187   */\n      tag_201\n        /* \"#utility.yul\":8185:8186   */\n      dup4\n        /* \"#utility.yul\":8167:8187   */\n      tag_93\n      jump\t// in\n    tag_201:\n        /* \"#utility.yul\":8162:8187   */\n      swap3\n      pop\n        /* \"#utility.yul\":8206:8207   */\n      dup3\n        /* \"#utility.yul\":8196:8231   */\n      tag_202\n      jumpi\n        /* \"#utility.yul\":8211:8229   */\n      tag_203\n      tag_116\n      jump\t// in\n    tag_203:\n        /* \"#utility.yul\":8196:8231   */\n    tag_202:\n        /* \"#utility.yul\":8253:8254   */\n      dup3\n        /* \"#utility.yul\":8250:8251   */\n      dup3\n        /* \"#utility.yul\":8246:8255   */\n      div\n        /* \"#utility.yul\":8241:8255   */\n      swap1\n      pop\n        /* \"#utility.yul\":8076:8261   */\n      swap3\n      swap2\n      pop\n      pop\n      jump\t// out\n        /* \"#utility.yul\":8267:8372   */\n    tag_117:\n        /* \"#utility.yul\":8303:8310   */\n      0x00\n        /* \"#utility.yul\":8343:8365   */\n      0xffffffffffffffffffff\n        /* \"#utility.yul\":8336:8341   */\n      dup3\n        /* \"#utility.yul\":8332:8366   */\n      and\n        /* \"#utility.yul\":8321:8366   */\n      swap1\n      pop\n        /* \"#utility.yul\":8267:8372   */\n      swap2\n      swap1\n      pop\n      jump\t// out\n        /* \"#utility.yul\":8378:8498   */\n    tag_118:\n        /* \"#utility.yul\":8450:8473   */\n      tag_206\n        /* \"#utility.yul\":8467:8472   */\n      dup2\n        /* \"#utility.yul\":8450:8473   */\n      tag_117\n      jump\t// in\n    tag_206:\n        /* \"#utility.yul\":8443:8448   */\n      dup2\n        /* \"#utility.yul\":8440:8474   */\n      eq\n        /* \"#utility.yul\":8430:8492   */\n      tag_207\n      jumpi\n        /* \"#utility.yul\":8488:8489   */\n      0x00\n        /* \"#utility.yul\":8485:8486   */\n      dup1\n        /* \"#utility.yul\":8478:8490   */\n      revert\n        /* \"#utility.yul\":8430:8492   */\n    tag_207:\n        /* \"#utility.yul\":8378:8498   */\n      pop\n      jump\t// out\n        /* \"#utility.yul\":8504:8645   */\n    tag_119:\n        /* \"#utility.yul\":8560:8565   */\n      0x00\n        /* \"#utility.yul\":8591:8597   */\n      dup2\n        /* \"#utility.yul\":8585:8598   */\n      mload\n        /* \"#utility.yul\":8576:8598   */\n      swap1\n      pop\n        /* \"#utility.yul\":8607:8639   */\n      tag_209\n        /* \"#utility.yul\":8633:8638   */\n      dup2\n        /* \"#utility.yul\":8607:8639   */\n      tag_118\n      jump\t// in\n    tag_209:\n        /* \"#utility.yul\":8504:8645   */\n      swap3\n      swap2\n      pop\n      pop\n      jump\t// out\n        /* \"#utility.yul\":8651:8727   */\n    tag_120:\n        /* \"#utility.yul\":8687:8694   */\n      0x00\n        /* \"#utility.yul\":8716:8721   */\n      dup2\n        /* \"#utility.yul\":8705:8721   */\n      swap1\n      pop\n        /* \"#utility.yul\":8651:8727   */\n      swap2\n      swap1\n      pop\n      jump\t// out\n        /* \"#utility.yul\":8733:8853   */\n    tag_121:\n        /* \"#utility.yul\":8805:8828   */\n      tag_212\n        /* \"#utility.yul\":8822:8827   */\n      dup2\n        /* \"#utility.yul\":8805:8828   */\n      tag_120\n      jump\t// in\n    tag_212:\n        /* \"#utility.yul\":8798:8803   */\n      dup2\n        /* \"#utility.yul\":8795:8829   */\n      eq\n        /* \"#utility.yul\":8785:8847   */\n      tag_213\n      jumpi\n        /* \"#utility.yul\":8843:8844   */\n      0x00\n        /* \"#utility.yul\":8840:8841   */\n      dup1\n        /* \"#utility.yul\":8833:8845   */\n      revert\n        /* \"#utility.yul\":8785:8847   */\n    tag_213:\n        /* \"#utility.yul\":8733:8853   */\n      pop\n      jump\t// out\n        /* \"#utility.yul\":8859:9000   */\n    tag_122:\n        /* \"#utility.yul\":8915:8920   */\n      0x00\n        /* \"#utility.yul\":8946:8952   */\n      dup2\n        /* \"#utility.yul\":8940:8953   */\n      mload\n        /* \"#utility.yul\":8931:8953   */\n      swap1\n      pop\n        /* \"#utility.yul\":8962:8994   */\n      tag_215\n        /* \"#utility.yul\":8988:8993   */\n      dup2\n        /* \"#utility.yul\":8962:8994   */\n      tag_121\n      jump\t// in\n    tag_215:\n        /* \"#utility.yul\":8859:9000   */\n      swap3\n      swap2\n      pop\n      pop\n      jump\t// out\n        /* \"#utility.yul\":9006:9149   */\n    tag_123:\n        /* \"#utility.yul\":9063:9068   */\n      0x00\n        /* \"#utility.yul\":9094:9100   */\n      dup2\n        /* \"#utility.yul\":9088:9101   */\n      mload\n        /* \"#utility.yul\":9079:9101   */\n      swap1\n      pop\n        /* \"#utility.yul\":9110:9143   */\n      tag_217\n        /* \"#utility.yul\":9137:9142   */\n      dup2\n        /* \"#utility.yul\":9110:9143   */\n      tag_103\n      jump\t// in\n    tag_217:\n        /* \"#utility.yul\":9006:9149   */\n      swap3\n      swap2\n      pop\n      pop\n      jump\t// out\n        /* \"#utility.yul\":9155:10126   */\n    tag_83:\n        /* \"#utility.yul\":9258:9264   */\n      0x00\n        /* \"#utility.yul\":9266:9272   */\n      dup1\n        /* \"#utility.yul\":9274:9280   */\n      0x00\n        /* \"#utility.yul\":9282:9288   */\n      dup1\n        /* \"#utility.yul\":9290:9296   */\n      0x00\n        /* \"#utility.yul\":9339:9342   */\n      0xa0\n        /* \"#utility.yul\":9327:9336   */\n      dup7\n        /* \"#utility.yul\":9318:9325   */\n      dup9\n        /* \"#utility.yul\":9314:9337   */\n      sub\n        /* \"#utility.yul\":9310:9343   */\n      slt\n        /* \"#utility.yul\":9307:9427   */\n      iszero\n      tag_219\n      jumpi\n        /* \"#utility.yul\":9346:9425   */\n      tag_220\n      tag_96\n      jump\t// in\n    tag_220:\n        /* \"#utility.yul\":9307:9427   */\n    tag_219:\n        /* \"#utility.yul\":9466:9467   */\n      0x00\n        /* \"#utility.yul\":9491:9554   */\n      tag_221\n        /* \"#utility.yul\":9546:9553   */\n      dup9\n        /* \"#utility.yul\":9537:9543   */\n      dup3\n        /* \"#utility.yul\":9526:9535   */\n      dup10\n        /* \"#utility.yul\":9522:9544   */\n      add\n        /* \"#utility.yul\":9491:9554   */\n      tag_119\n      jump\t// in\n    tag_221:\n        /* \"#utility.yul\":9481:9554   */\n      swap6\n      pop\n        /* \"#utility.yul\":9437:9564   */\n      pop\n        /* \"#utility.yul\":9603:9605   */\n      0x20\n        /* \"#utility.yul\":9629:9692   */\n      tag_222\n        /* \"#utility.yul\":9684:9691   */\n      dup9\n        /* \"#utility.yul\":9675:9681   */\n      dup3\n        /* \"#utility.yul\":9664:9673   */\n      dup10\n        /* \"#utility.yul\":9660:9682   */\n      add\n        /* \"#utility.yul\":9629:9692   */\n      tag_122\n      jump\t// in\n    tag_222:\n        /* \"#utility.yul\":9619:9692   */\n      swap5\n      pop\n        /* \"#utility.yul\":9574:9702   */\n      pop\n        /* \"#utility.yul\":9741:9743   */\n      0x40\n        /* \"#utility.yul\":9767:9831   */\n      tag_223\n        /* \"#utility.yul\":9823:9830   */\n      dup9\n        /* \"#utility.yul\":9814:9820   */\n      dup3\n        /* \"#utility.yul\":9803:9812   */\n      dup10\n        /* \"#utility.yul\":9799:9821   */\n      add\n        /* \"#utility.yul\":9767:9831   */\n      tag_123\n      jump\t// in\n    tag_223:\n        /* \"#utility.yul\":9757:9831   */\n      swap4\n      pop\n        /* \"#utility.yul\":9712:9841   */\n      pop\n        /* \"#utility.yul\":9880:9882   */\n      0x60\n        /* \"#utility.yul\":9906:9970   */\n      tag_224\n        /* \"#utility.yul\":9962:9969   */\n      dup9\n        /* \"#utility.yul\":9953:9959   */\n      dup3\n        /* \"#utility.yul\":9942:9951   */\n      dup10\n        /* \"#utility.yul\":9938:9960   */\n      add\n        /* \"#utility.yul\":9906:9970   */\n      tag_123\n      jump\t// in\n    tag_224:\n        /* \"#utility.yul\":9896:9970   */\n      swap3\n      pop\n        /* \"#utility.yul\":9851:9980   */\n      pop\n        /* \"#utility.yul\":10019:10022   */\n      0x80\n        /* \"#utility.yul\":10046:10109   */\n      tag_225\n        /* \"#utility.yul\":10101:10108   */\n      dup9\n        /* \"#utility.yul\":10092:10098   */\n      dup3\n        /* \"#utility.yul\":10081:10090   */\n      dup10\n        /* \"#utility.yul\":10077:10099   */\n      add\n        /* \"#utility.yul\":10046:10109   */\n      tag_119\n      jump\t// in\n    tag_225:\n        /* \"#utility.yul\":10036:10109   */\n      swap2\n      pop\n        /* \"#utility.yul\":9990:10119   */\n      pop\n        /* \"#utility.yul\":9155:10126   */\n      swap3\n      swap6\n      pop\n      swap3\n      swap6\n      swap1\n      swap4\n      pop\n      jump\t// out\n        /* \"#utility.yul\":10132:10688   */\n    tag_85:\n        /* \"#utility.yul\":10171:10178   */\n      0x00\n        /* \"#utility.yul\":10194:10213   */\n      tag_227\n        /* \"#utility.yul\":10211:10212   */\n      dup3\n        /* \"#utility.yul\":10194:10213   */\n      tag_120\n      jump\t// in\n    tag_227:\n        /* \"#utility.yul\":10189:10213   */\n      swap2\n      pop\n        /* \"#utility.yul\":10227:10246   */\n      tag_228\n        /* \"#utility.yul\":10244:10245   */\n      dup4\n        /* \"#utility.yul\":10227:10246   */\n      tag_120\n      jump\t// in\n    tag_228:\n        /* \"#utility.yul\":10222:10246   */\n      swap3\n      pop\n        /* \"#utility.yul\":10281:10282   */\n      dup3\n        /* \"#utility.yul\":10278:10279   */\n      dup3\n        /* \"#utility.yul\":10274:10283   */\n      mul\n        /* \"#utility.yul\":10303:10332   */\n      tag_229\n        /* \"#utility.yul\":10320:10331   */\n      dup2\n        /* \"#utility.yul\":10303:10332   */\n      tag_120\n      jump\t// in\n    tag_229:\n        /* \"#utility.yul\":10292:10332   */\n      swap2\n      pop\n        /* \"#utility.yul\":10390:10456   */\n      0x8000000000000000000000000000000000000000000000000000000000000000\n        /* \"#utility.yul\":10387:10388   */\n      dup5\n        /* \"#utility.yul\":10384:10457   */\n      eq\n        /* \"#utility.yul\":10380:10381   */\n      0x00\n        /* \"#utility.yul\":10377:10378   */\n      dup5\n        /* \"#utility.yul\":10373:10382   */\n      slt\n        /* \"#utility.yul\":10369:10458   */\n      and\n        /* \"#utility.yul\":10366:10481   */\n      iszero\n      tag_230\n      jumpi\n        /* \"#utility.yul\":10461:10479   */\n      tag_231\n      tag_115\n      jump\t// in\n    tag_231:\n        /* \"#utility.yul\":10366:10481   */\n    tag_230:\n        /* \"#utility.yul\":10631:10632   */\n      dup3\n        /* \"#utility.yul\":10622:10629   */\n      dup3\n        /* \"#utility.yul\":10617:10633   */\n      sdiv\n        /* \"#utility.yul\":10614:10615   */\n      dup5\n        /* \"#utility.yul\":10611:10634   */\n      eq\n        /* \"#utility.yul\":10591:10592   */\n      dup4\n        /* \"#utility.yul\":10584:10593   */\n      iszero\n        /* \"#utility.yul\":10564:10648   */\n      or\n        /* \"#utility.yul\":10541:10681   */\n      tag_232\n      jumpi\n        /* \"#utility.yul\":10661:10679   */\n      tag_233\n      tag_115\n      jump\t// in\n    tag_233:\n        /* \"#utility.yul\":10541:10681   */\n    tag_232:\n        /* \"#utility.yul\":10179:10688   */\n      pop\n        /* \"#utility.yul\":10132:10688   */\n      swap3\n      swap2\n      pop\n      pop\n      jump\t// out\n\n    auxdata: 0xa26469706673582212207dc5ce7cdc0f3e0c45b635a52efeb26ccf29c1c2d614c410b341ffb1e57535bb64736f6c63430008180033\n}\n",
				"bytecode": {
					"linkReferences": {},
					"object": "6080604052674563918244f4000060005534801561001c57600080fd5b5033600360006101000a81548173ffffffffffffffffffffffffffffffffffffffff021916908373ffffffffffffffffffffffffffffffffffffffff160217905550610ca18061006d6000396000f3fe6080604052600436106100555760003560e01c80633430a88c1461005a5780633ccfd60b146100855780633e47d6f31461009c5780638da5cb5b146100d9578063b60d428814610104578063dc0d3dff1461010e575b600080fd5b34801561006657600080fd5b5061006f61014b565b60405161007c91906106bf565b60405180910390f35b34801561009157600080fd5b5061009a610151565b005b3480156100a857600080fd5b506100c360048036038101906100be919061073d565b610397565b6040516100d091906106bf565b60405180910390f35b3480156100e557600080fd5b506100ee6103af565b6040516100fb9190610779565b60405180910390f35b61010c6103d5565b005b34801561011a57600080fd5b50610135600480360381019061013091906107c0565b6104dd565b6040516101429190610779565b60405180910390f35b60005481565b600360009054906101000a900473ffffffffffffffffffffffffffffffffffffffff1673ffffffffffffffffffffffffffffffffffffffff163373ffffffffffffffffffffffffffffffffffffffff16146101e1576040517f08c379a00000000000000000000000000000000000000000000000000000000081526004016101d89061084a565b60405180910390fd5b60005b600180549050811015610287576000600182815481106102075761020661086a565b5b9060005260206000200160009054906101000a900473ffffffffffffffffffffffffffffffffffffffff1690506000600260008373ffffffffffffffffffffffffffffffffffffffff1673ffffffffffffffffffffffffffffffffffffffff168152602001908152602001600020819055505080806001019150506101e4565b50600067ffffffffffffffff8111156102a3576102a2610899565b5b6040519080825280602002602001820160405280156102d15781602001602082028036833780820191505090505b50600190805190602001906102e79291906105ff565b5060003373ffffffffffffffffffffffffffffffffffffffff164760405161030e906108f9565b60006040518083038185875af1925050503d806000811461034b576040519150601f19603f3d011682016040523d82523d6000602084013e610350565b606091505b5050905080610394576040517f08c379a000000000000000000000000000000000000000000000000000000000815260040161038b9061095a565b60405180910390fd5b50565b60026020528060005260406000206000915090505481565b600360009054906101000a900473ffffffffffffffffffffffffffffffffffffffff1681565b6000546103e13461051c565b1015610422576040517f08c379a0000000000000000000000000000000000000000000000000000000008152600401610419906109c6565b60405180910390fd5b6001339080600181540180825580915050600190039060005260206000200160009091909190916101000a81548173ffffffffffffffffffffffffffffffffffffffff021916908373ffffffffffffffffffffffffffffffffffffffff16021790555034600260003373ffffffffffffffffffffffffffffffffffffffff1673ffffffffffffffffffffffffffffffffffffffff16815260200190815260200160002060008282546104d49190610a15565b92505081905550565b600181815481106104ed57600080fd5b906000526020600020016000915054906101000a900473ffffffffffffffffffffffffffffffffffffffff1681565b600080610527610556565b90506000670de0b6b3a764000082856105409190610a49565b61054a9190610aba565b90508092505050919050565b60008073694aa1769357215de4fac081bf1f309adc325306905060008173ffffffffffffffffffffffffffffffffffffffff1663feaf968c6040518163ffffffff1660e01b815260040160a060405180830381865afa1580156105bd573d6000803e3d6000fd5b505050506040513d601f19601f820116820180604052508101906105e19190610b78565b5050509150506402540be400816105f89190610bf3565b9250505090565b828054828255906000526020600020908101928215610678579160200282015b828111156106775782518260006101000a81548173ffffffffffffffffffffffffffffffffffffffff021916908373ffffffffffffffffffffffffffffffffffffffff1602179055509160200191906001019061061f565b5b5090506106859190610689565b5090565b5b808211156106a257600081600090555060010161068a565b5090565b6000819050919050565b6106b9816106a6565b82525050565b60006020820190506106d460008301846106b0565b92915050565b600080fd5b600073ffffffffffffffffffffffffffffffffffffffff82169050919050565b600061070a826106df565b9050919050565b61071a816106ff565b811461072557600080fd5b50565b60008135905061073781610711565b92915050565b600060208284031215610753576107526106da565b5b600061076184828501610728565b91505092915050565b610773816106ff565b82525050565b600060208201905061078e600083018461076a565b92915050565b61079d816106a6565b81146107a857600080fd5b50565b6000813590506107ba81610794565b92915050565b6000602082840312156107d6576107d56106da565b5b60006107e4848285016107ab565b91505092915050565b600082825260208201905092915050565b7f53656e646572206973206e6f74206f776e657200000000000000000000000000600082015250565b60006108346013836107ed565b915061083f826107fe565b602082019050919050565b6000602082019050818103600083015261086381610827565b9050919050565b7f4e487b7100000000000000000000000000000000000000000000000000000000600052603260045260246000fd5b7f4e487b7100000000000000000000000000000000000000000000000000000000600052604160045260246000fd5b600081905092915050565b50565b60006108e36000836108c8565b91506108ee826108d3565b600082019050919050565b6000610904826108d6565b9150819050919050565b7f63616c6c206661696c6564000000000000000000000000000000000000000000600082015250565b6000610944600b836107ed565b915061094f8261090e565b602082019050919050565b6000602082019050818103600083015261097381610937565b9050919050565b7f6469646e27742073656e7420656e6f7567682057656900000000000000000000600082015250565b60006109b06016836107ed565b91506109bb8261097a565b602082019050919050565b600060208201905081810360008301526109df816109a3565b9050919050565b7f4e487b7100000000000000000000000000000000000000000000000000000000600052601160045260246000fd5b6000610a20826106a6565b9150610a2b836106a6565b9250828201905080821115610a4357610a426109e6565b5b92915050565b6000610a54826106a6565b9150610a5f836106a6565b9250828202610a6d816106a6565b91508282048414831517610a8457610a836109e6565b5b5092915050565b7f4e487b7100000000000000000000000000000000000000000000000000000000600052601260045260246000fd5b6000610ac5826106a6565b9150610ad0836106a6565b925082610ae057610adf610a8b565b5b828204905092915050565b600069ffffffffffffffffffff82169050919050565b610b0a81610aeb565b8114610b1557600080fd5b50565b600081519050610b2781610b01565b92915050565b6000819050919050565b610b4081610b2d565b8114610b4b57600080fd5b50565b600081519050610b5d81610b37565b92915050565b600081519050610b7281610794565b92915050565b600080600080600060a08688031215610b9457610b936106da565b5b6000610ba288828901610b18565b9550506020610bb388828901610b4e565b9450506040610bc488828901610b63565b9350506060610bd588828901610b63565b9250506080610be688828901610b18565b9150509295509295909350565b6000610bfe82610b2d565b9150610c0983610b2d565b9250828202610c1781610b2d565b91507f80000000000000000000000000000000000000000000000000000000000000008414600084121615610c4f57610c4e6109e6565b5b8282058414831517610c6457610c636109e6565b5b509291505056fea26469706673582212207dc5ce7cdc0f3e0c45b635a52efeb26ccf29c1c2d614c410b341ffb1e57535bb64736f6c63430008180033",
					"opcodes": "PUSH1 0x80 PUSH1 0x40 MSTORE PUSH8 0x4563918244F40000 PUSH1 0x0 SSTORE CALLVALUE DUP1 ISZERO PUSH2 0x1C JUMPI PUSH1 0x0 DUP1 REVERT JUMPDEST POP CALLER PUSH1 0x3 PUSH1 0x0 PUSH2 0x100 EXP DUP2 SLOAD DUP2 PUSH20 0xFFFFFFFFFFFFFFFFFFFFFFFFFFFFFFFFFFFFFFFF MUL NOT AND SWAP1 DUP4 PUSH20 0xFFFFFFFFFFFFFFFFFFFFFFFFFFFFFFFFFFFFFFFF AND MUL OR SWAP1 SSTORE POP PUSH2 0xCA1 DUP1 PUSH2 0x6D PUSH1 0x0 CODECOPY PUSH1 0x0 RETURN INVALID PUSH1 0x80 PUSH1 0x40 MSTORE PUSH1 0x4 CALLDATASIZE LT PUSH2 0x55 JUMPI PUSH1 0x0 CALLDATALOAD PUSH1 0xE0 SHR DUP1 PUSH4 0x3430A88C EQ PUSH2 0x5A JUMPI DUP1 PUSH4 0x3CCFD60B EQ PUSH2 0x85 JUMPI DUP1 PUSH4 0x3E47D6F3 EQ PUSH2 0x9C JUMPI DUP1 PUSH4 0x8DA5CB5B EQ PUSH2 0xD9 JUMPI DUP1 PUSH4 0xB60D4288 EQ PUSH2 0x104 JUMPI DUP1 PUSH4 0xDC0D3DFF EQ PUSH2 0x10E JUMPI JUMPDEST PUSH1 0x0 DUP1 REVERT JUMPDEST CALLVALUE DUP1 ISZERO PUSH2 0x66 JUMPI PUSH1 0x0 DUP1 REVERT JUMPDEST POP PUSH2 0x6F PUSH2 0x14B JUMP JUMPDEST PUSH1 0x40 MLOAD PUSH2 0x7C SWAP2 SWAP1 PUSH2 0x6BF JUMP JUMPDEST PUSH1 0x40 MLOAD DUP1 SWAP2 SUB SWAP1 RETURN JUMPDEST CALLVALUE DUP1 ISZERO PUSH2 0x91 JUMPI PUSH1 0x0 DUP1 REVERT JUMPDEST POP PUSH2 0x9A PUSH2 0x151 JUMP JUMPDEST STOP JUMPDEST CALLVALUE DUP1 ISZERO PUSH2 0xA8 JUMPI PUSH1 0x0 DUP1 REVERT JUMPDEST POP PUSH2 0xC3 PUSH1 0x4 DUP1 CALLDATASIZE SUB DUP2 ADD SWAP1 PUSH2 0xBE SWAP2 SWAP1 PUSH2 0x73D JUMP JUMPDEST PUSH2 0x397 JUMP JUMPDEST PUSH1 0x40 MLOAD PUSH2 0xD0 SWAP2 SWAP1 PUSH2 0x6BF JUMP JUMPDEST PUSH1 0x40 MLOAD DUP1 SWAP2 SUB SWAP1 RETURN JUMPDEST CALLVALUE DUP1 ISZERO PUSH2 0xE5 JUMPI PUSH1 0x0 DUP1 REVERT JUMPDEST POP PUSH2 0xEE PUSH2 0x3AF JUMP JUMPDEST PUSH1 0x40 MLOAD PUSH2 0xFB SWAP2 SWAP1 PUSH2 0x779 JUMP JUMPDEST PUSH1 0x40 MLOAD DUP1 SWAP2 SUB SWAP1 RETURN JUMPDEST PUSH2 0x10C PUSH2 0x3D5 JUMP JUMPDEST STOP JUMPDEST CALLVALUE DUP1 ISZERO PUSH2 0x11A JUMPI PUSH1 0x0 DUP1 REVERT JUMPDEST POP PUSH2 0x135 PUSH1 0x4 DUP1 CALLDATASIZE SUB DUP2 ADD SWAP1 PUSH2 0x130 SWAP2 SWAP1 PUSH2 0x7C0 JUMP JUMPDEST PUSH2 0x4DD JUMP JUMPDEST PUSH1 0x40 MLOAD PUSH2 0x142 SWAP2 SWAP1 PUSH2 0x779 JUMP JUMPDEST PUSH1 0x40 MLOAD DUP1 SWAP2 SUB SWAP1 RETURN JUMPDEST PUSH1 0x0 SLOAD DUP2 JUMP JUMPDEST PUSH1 0x3 PUSH1 0x0 SWAP1 SLOAD SWAP1 PUSH2 0x100 EXP SWAP1 DIV PUSH20 0xFFFFFFFFFFFFFFFFFFFFFFFFFFFFFFFFFFFFFFFF AND PUSH20 0xFFFFFFFFFFFFFFFFFFFFFFFFFFFFFFFFFFFFFFFF AND CALLER PUSH20 0xFFFFFFFFFFFFFFFFFFFFFFFFFFFFFFFFFFFFFFFF AND EQ PUSH2 0x1E1 JUMPI PUSH1 0x40 MLOAD PUSH32 0x8C379A000000000000000000000000000000000000000000000000000000000 DUP2 MSTORE PUSH1 0x4 ADD PUSH2 0x1D8 SWAP1 PUSH2 0x84A JUMP JUMPDEST PUSH1 0x40 MLOAD DUP1 SWAP2 SUB SWAP1 REVERT JUMPDEST PUSH1 0x0 JUMPDEST PUSH1 0x1 DUP1 SLOAD SWAP1 POP DUP2 LT ISZERO PUSH2 0x287 JUMPI PUSH1 0x0 PUSH1 0x1 DUP3 DUP2 SLOAD DUP2 LT PUSH2 0x207 JUMPI PUSH2 0x206 PUSH2 0x86A JUMP JUMPDEST JUMPDEST SWAP1 PUSH1 0x0 MSTORE PUSH1 0x20 PUSH1 0x0 KECCAK256 ADD PUSH1 0x0 SWAP1 SLOAD SWAP1 PUSH2 0x100 EXP SWAP1 DIV PUSH20 0xFFFFFFFFFFFFFFFFFFFFFFFFFFFFFFFFFFFFFFFF AND SWAP1 POP PUSH1 0x0 PUSH1 0x2 PUSH1 0x0 DUP4 PUSH20 0xFFFFFFFFFFFFFFFFFFFFFFFFFFFFFFFFFFFFFFFF AND PUSH20 0xFFFFFFFFFFFFFFFFFFFFFFFFFFFFFFFFFFFFFFFF AND DUP2 MSTORE PUSH1 0x20 ADD SWAP1 DUP2 MSTORE PUSH1 0x20 ADD PUSH1 0x0 KECCAK256 DUP2 SWAP1 SSTORE POP POP DUP1 DUP1 PUSH1 0x1 ADD SWAP2 POP POP PUSH2 0x1E4 JUMP JUMPDEST POP PUSH1 0x0 PUSH8 0xFFFFFFFFFFFFFFFF DUP2 GT ISZERO PUSH2 0x2A3 JUMPI PUSH2 0x2A2 PUSH2 0x899 JUMP JUMPDEST JUMPDEST PUSH1 0x40 MLOAD SWAP1 DUP1 DUP3 MSTORE DUP1 PUSH1 0x20 MUL PUSH1 0x20 ADD DUP3 ADD PUSH1 0x40 MSTORE DUP1 ISZERO PUSH2 0x2D1 JUMPI DUP2 PUSH1 0x20 ADD PUSH1 0x20 DUP3 MUL DUP1 CALLDATASIZE DUP4 CALLDATACOPY DUP1 DUP3 ADD SWAP2 POP POP SWAP1 POP JUMPDEST POP PUSH1 0x1 SWAP1 DUP1 MLOAD SWAP1 PUSH1 0x20 ADD SWAP1 PUSH2 0x2E7 SWAP3 SWAP2 SWAP1 PUSH2 0x5FF JUMP JUMPDEST POP PUSH1 0x0 CALLER PUSH20 0xFFFFFFFFFFFFFFFFFFFFFFFFFFFFFFFFFFFFFFFF AND SELFBALANCE PUSH1 0x40 MLOAD PUSH2 0x30E SWAP1 PUSH2 0x8F9 JUMP JUMPDEST PUSH1 0x0 PUSH1 0x40 MLOAD DUP1 DUP4 SUB DUP2 DUP6 DUP8 GAS CALL SWAP3 POP POP POP RETURNDATASIZE DUP1 PUSH1 0x0 DUP2 EQ PUSH2 0x34B JUMPI PUSH1 0x40 MLOAD SWAP2 POP PUSH1 0x1F NOT PUSH1 0x3F RETURNDATASIZE ADD AND DUP3 ADD PUSH1 0x40 MSTORE RETURNDATASIZE DUP3 MSTORE RETURNDATASIZE PUSH1 0x0 PUSH1 0x20 DUP5 ADD RETURNDATACOPY PUSH2 0x350 JUMP JUMPDEST PUSH1 0x60 SWAP2 POP JUMPDEST POP POP SWAP1 POP DUP1 PUSH2 0x394 JUMPI PUSH1 0x40 MLOAD PUSH32 0x8C379A000000000000000000000000000000000000000000000000000000000 DUP2 MSTORE PUSH1 0x4 ADD PUSH2 0x38B SWAP1 PUSH2 0x95A JUMP JUMPDEST PUSH1 0x40 MLOAD DUP1 SWAP2 SUB SWAP1 REVERT JUMPDEST POP JUMP JUMPDEST PUSH1 0x2 PUSH1 0x20 MSTORE DUP1 PUSH1 0x0 MSTORE PUSH1 0x40 PUSH1 0x0 KECCAK256 PUSH1 0x0 SWAP2 POP SWAP1 POP SLOAD DUP2 JUMP JUMPDEST PUSH1 0x3 PUSH1 0x0 SWAP1 SLOAD SWAP1 PUSH2 0x100 EXP SWAP1 DIV PUSH20 0xFFFFFFFFFFFFFFFFFFFFFFFFFFFFFFFFFFFFFFFF AND DUP2 JUMP JUMPDEST PUSH1 0x0 SLOAD PUSH2 0x3E1 CALLVALUE PUSH2 0x51C JUMP JUMPDEST LT ISZERO PUSH2 0x422 JUMPI PUSH1 0x40 MLOAD PUSH32 0x8C379A000000000000000000000000000000000000000000000000000000000 DUP2 MSTORE PUSH1 0x4 ADD PUSH2 0x419 SWAP1 PUSH2 0x9C6 JUMP JUMPDEST PUSH1 0x40 MLOAD DUP1 SWAP2 SUB SWAP1 REVERT JUMPDEST PUSH1 0x1 CALLER SWAP1 DUP1 PUSH1 0x1 DUP2 SLOAD ADD DUP1 DUP3 SSTORE DUP1 SWAP2 POP POP PUSH1 0x1 SWAP1 SUB SWAP1 PUSH1 0x0 MSTORE PUSH1 0x20 PUSH1 0x0 KECCAK256 ADD PUSH1 0x0 SWAP1 SWAP2 SWAP1 SWAP2 SWAP1 SWAP2 PUSH2 0x100 EXP DUP2 SLOAD DUP2 PUSH20 0xFFFFFFFFFFFFFFFFFFFFFFFFFFFFFFFFFFFFFFFF MUL NOT AND SWAP1 DUP4 PUSH20 0xFFFFFFFFFFFFFFFFFFFFFFFFFFFFFFFFFFFFFFFF AND MUL OR SWAP1 SSTORE POP CALLVALUE PUSH1 0x2 PUSH1 0x0 CALLER PUSH20 0xFFFFFFFFFFFFFFFFFFFFFFFFFFFFFFFFFFFFFFFF AND PUSH20 0xFFFFFFFFFFFFFFFFFFFFFFFFFFFFFFFFFFFFFFFF AND DUP2 MSTORE PUSH1 0x20 ADD SWAP1 DUP2 MSTORE PUSH1 0x20 ADD PUSH1 0x0 KECCAK256 PUSH1 0x0 DUP3 DUP3 SLOAD PUSH2 0x4D4 SWAP2 SWAP1 PUSH2 0xA15 JUMP JUMPDEST SWAP3 POP POP DUP2 SWAP1 SSTORE POP JUMP JUMPDEST PUSH1 0x1 DUP2 DUP2 SLOAD DUP2 LT PUSH2 0x4ED JUMPI PUSH1 0x0 DUP1 REVERT JUMPDEST SWAP1 PUSH1 0x0 MSTORE PUSH1 0x20 PUSH1 0x0 KECCAK256 ADD PUSH1 0x0 SWAP2 POP SLOAD SWAP1 PUSH2 0x100 EXP SWAP1 DIV PUSH20 0xFFFFFFFFFFFFFFFFFFFFFFFFFFFFFFFFFFFFFFFF AND DUP2 JUMP JUMPDEST PUSH1 0x0 DUP1 PUSH2 0x527 PUSH2 0x556 JUMP JUMPDEST SWAP1 POP PUSH1 0x0 PUSH8 0xDE0B6B3A7640000 DUP3 DUP6 PUSH2 0x540 SWAP2 SWAP1 PUSH2 0xA49 JUMP JUMPDEST PUSH2 0x54A SWAP2 SWAP1 PUSH2 0xABA JUMP JUMPDEST SWAP1 POP DUP1 SWAP3 POP POP POP SWAP2 SWAP1 POP JUMP JUMPDEST PUSH1 0x0 DUP1 PUSH20 0x694AA1769357215DE4FAC081BF1F309ADC325306 SWAP1 POP PUSH1 0x0 DUP2 PUSH20 0xFFFFFFFFFFFFFFFFFFFFFFFFFFFFFFFFFFFFFFFF AND PUSH4 0xFEAF968C PUSH1 0x40 MLOAD DUP2 PUSH4 0xFFFFFFFF AND PUSH1 0xE0 SHL DUP2 MSTORE PUSH1 0x4 ADD PUSH1 0xA0 PUSH1 0x40 MLOAD DUP1 DUP4 SUB DUP2 DUP7 GAS STATICCALL ISZERO DUP1 ISZERO PUSH2 0x5BD JUMPI RETURNDATASIZE PUSH1 0x0 DUP1 RETURNDATACOPY RETURNDATASIZE PUSH1 0x0 REVERT JUMPDEST POP POP POP POP PUSH1 0x40 MLOAD RETURNDATASIZE PUSH1 0x1F NOT PUSH1 0x1F DUP3 ADD AND DUP3 ADD DUP1 PUSH1 0x40 MSTORE POP DUP2 ADD SWAP1 PUSH2 0x5E1 SWAP2 SWAP1 PUSH2 0xB78 JUMP JUMPDEST POP POP POP SWAP2 POP POP PUSH5 0x2540BE400 DUP2 PUSH2 0x5F8 SWAP2 SWAP1 PUSH2 0xBF3 JUMP JUMPDEST SWAP3 POP POP POP SWAP1 JUMP JUMPDEST DUP3 DUP1 SLOAD DUP3 DUP3 SSTORE SWAP1 PUSH1 0x0 MSTORE PUSH1 0x20 PUSH1 0x0 KECCAK256 SWAP1 DUP2 ADD SWAP3 DUP3 ISZERO PUSH2 0x678 JUMPI SWAP2 PUSH1 0x20 MUL DUP3 ADD JUMPDEST DUP3 DUP2 GT ISZERO PUSH2 0x677 JUMPI DUP3 MLOAD DUP3 PUSH1 0x0 PUSH2 0x100 EXP DUP2 SLOAD DUP2 PUSH20 0xFFFFFFFFFFFFFFFFFFFFFFFFFFFFFFFFFFFFFFFF MUL NOT AND SWAP1 DUP4 PUSH20 0xFFFFFFFFFFFFFFFFFFFFFFFFFFFFFFFFFFFFFFFF AND MUL OR SWAP1 SSTORE POP SWAP2 PUSH1 0x20 ADD SWAP2 SWAP1 PUSH1 0x1 ADD SWAP1 PUSH2 0x61F JUMP JUMPDEST JUMPDEST POP SWAP1 POP PUSH2 0x685 SWAP2 SWAP1 PUSH2 0x689 JUMP JUMPDEST POP SWAP1 JUMP JUMPDEST JUMPDEST DUP1 DUP3 GT ISZERO PUSH2 0x6A2 JUMPI PUSH1 0x0 DUP2 PUSH1 0x0 SWAP1 SSTORE POP PUSH1 0x1 ADD PUSH2 0x68A JUMP JUMPDEST POP SWAP1 JUMP JUMPDEST PUSH1 0x0 DUP2 SWAP1 POP SWAP2 SWAP1 POP JUMP JUMPDEST PUSH2 0x6B9 DUP2 PUSH2 0x6A6 JUMP JUMPDEST DUP3 MSTORE POP POP JUMP JUMPDEST PUSH1 0x0 PUSH1 0x20 DUP3 ADD SWAP1 POP PUSH2 0x6D4 PUSH1 0x0 DUP4 ADD DUP5 PUSH2 0x6B0 JUMP JUMPDEST SWAP3 SWAP2 POP POP JUMP JUMPDEST PUSH1 0x0 DUP1 REVERT JUMPDEST PUSH1 0x0 PUSH20 0xFFFFFFFFFFFFFFFFFFFFFFFFFFFFFFFFFFFFFFFF DUP3 AND SWAP1 POP SWAP2 SWAP1 POP JUMP JUMPDEST PUSH1 0x0 PUSH2 0x70A DUP3 PUSH2 0x6DF JUMP JUMPDEST SWAP1 POP SWAP2 SWAP1 POP JUMP JUMPDEST PUSH2 0x71A DUP2 PUSH2 0x6FF JUMP JUMPDEST DUP2 EQ PUSH2 0x725 JUMPI PUSH1 0x0 DUP1 REVERT JUMPDEST POP JUMP JUMPDEST PUSH1 0x0 DUP2 CALLDATALOAD SWAP1 POP PUSH2 0x737 DUP2 PUSH2 0x711 JUMP JUMPDEST SWAP3 SWAP2 POP POP JUMP JUMPDEST PUSH1 0x0 PUSH1 0x20 DUP3 DUP5 SUB SLT ISZERO PUSH2 0x753 JUMPI PUSH2 0x752 PUSH2 0x6DA JUMP JUMPDEST JUMPDEST PUSH1 0x0 PUSH2 0x761 DUP5 DUP3 DUP6 ADD PUSH2 0x728 JUMP JUMPDEST SWAP2 POP POP SWAP3 SWAP2 POP POP JUMP JUMPDEST PUSH2 0x773 DUP2 PUSH2 0x6FF JUMP JUMPDEST DUP3 MSTORE POP POP JUMP JUMPDEST PUSH1 0x0 PUSH1 0x20 DUP3 ADD SWAP1 POP PUSH2 0x78E PUSH1 0x0 DUP4 ADD DUP5 PUSH2 0x76A JUMP JUMPDEST SWAP3 SWAP2 POP POP JUMP JUMPDEST PUSH2 0x79D DUP2 PUSH2 0x6A6 JUMP JUMPDEST DUP2 EQ PUSH2 0x7A8 JUMPI PUSH1 0x0 DUP1 REVERT JUMPDEST POP JUMP JUMPDEST PUSH1 0x0 DUP2 CALLDATALOAD SWAP1 POP PUSH2 0x7BA DUP2 PUSH2 0x794 JUMP JUMPDEST SWAP3 SWAP2 POP POP JUMP JUMPDEST PUSH1 0x0 PUSH1 0x20 DUP3 DUP5 SUB SLT ISZERO PUSH2 0x7D6 JUMPI PUSH2 0x7D5 PUSH2 0x6DA JUMP JUMPDEST JUMPDEST PUSH1 0x0 PUSH2 0x7E4 DUP5 DUP3 DUP6 ADD PUSH2 0x7AB JUMP JUMPDEST SWAP2 POP POP SWAP3 SWAP2 POP POP JUMP JUMPDEST PUSH1 0x0 DUP3 DUP3 MSTORE PUSH1 0x20 DUP3 ADD SWAP1 POP SWAP3 SWAP2 POP POP JUMP JUMPDEST PUSH32 0x53656E646572206973206E6F74206F776E657200000000000000000000000000 PUSH1 0x0 DUP3 ADD MSTORE POP JUMP JUMPDEST PUSH1 0x0 PUSH2 0x834 PUSH1 0x13 DUP4 PUSH2 0x7ED JUMP JUMPDEST SWAP2 POP PUSH2 0x83F DUP3 PUSH2 0x7FE JUMP JUMPDEST PUSH1 0x20 DUP3 ADD SWAP1 POP SWAP2 SWAP1 POP JUMP JUMPDEST PUSH1 0x0 PUSH1 0x20 DUP3 ADD SWAP1 POP DUP2 DUP2 SUB PUSH1 0x0 DUP4 ADD MSTORE PUSH2 0x863 DUP2 PUSH2 0x827 JUMP JUMPDEST SWAP1 POP SWAP2 SWAP1 POP JUMP JUMPDEST PUSH32 0x4E487B7100000000000000000000000000000000000000000000000000000000 PUSH1 0x0 MSTORE PUSH1 0x32 PUSH1 0x4 MSTORE PUSH1 0x24 PUSH1 0x0 REVERT JUMPDEST PUSH32 0x4E487B7100000000000000000000000000000000000000000000000000000000 PUSH1 0x0 MSTORE PUSH1 0x41 PUSH1 0x4 MSTORE PUSH1 0x24 PUSH1 0x0 REVERT JUMPDEST PUSH1 0x0 DUP2 SWAP1 POP SWAP3 SWAP2 POP POP JUMP JUMPDEST POP JUMP JUMPDEST PUSH1 0x0 PUSH2 0x8E3 PUSH1 0x0 DUP4 PUSH2 0x8C8 JUMP JUMPDEST SWAP2 POP PUSH2 0x8EE DUP3 PUSH2 0x8D3 JUMP JUMPDEST PUSH1 0x0 DUP3 ADD SWAP1 POP SWAP2 SWAP1 POP JUMP JUMPDEST PUSH1 0x0 PUSH2 0x904 DUP3 PUSH2 0x8D6 JUMP JUMPDEST SWAP2 POP DUP2 SWAP1 POP SWAP2 SWAP1 POP JUMP JUMPDEST PUSH32 0x63616C6C206661696C6564000000000000000000000000000000000000000000 PUSH1 0x0 DUP3 ADD MSTORE POP JUMP JUMPDEST PUSH1 0x0 PUSH2 0x944 PUSH1 0xB DUP4 PUSH2 0x7ED JUMP JUMPDEST SWAP2 POP PUSH2 0x94F DUP3 PUSH2 0x90E JUMP JUMPDEST PUSH1 0x20 DUP3 ADD SWAP1 POP SWAP2 SWAP1 POP JUMP JUMPDEST PUSH1 0x0 PUSH1 0x20 DUP3 ADD SWAP1 POP DUP2 DUP2 SUB PUSH1 0x0 DUP4 ADD MSTORE PUSH2 0x973 DUP2 PUSH2 0x937 JUMP JUMPDEST SWAP1 POP SWAP2 SWAP1 POP JUMP JUMPDEST PUSH32 0x6469646E27742073656E7420656E6F7567682057656900000000000000000000 PUSH1 0x0 DUP3 ADD MSTORE POP JUMP JUMPDEST PUSH1 0x0 PUSH2 0x9B0 PUSH1 0x16 DUP4 PUSH2 0x7ED JUMP JUMPDEST SWAP2 POP PUSH2 0x9BB DUP3 PUSH2 0x97A JUMP JUMPDEST PUSH1 0x20 DUP3 ADD SWAP1 POP SWAP2 SWAP1 POP JUMP JUMPDEST PUSH1 0x0 PUSH1 0x20 DUP3 ADD SWAP1 POP DUP2 DUP2 SUB PUSH1 0x0 DUP4 ADD MSTORE PUSH2 0x9DF DUP2 PUSH2 0x9A3 JUMP JUMPDEST SWAP1 POP SWAP2 SWAP1 POP JUMP JUMPDEST PUSH32 0x4E487B7100000000000000000000000000000000000000000000000000000000 PUSH1 0x0 MSTORE PUSH1 0x11 PUSH1 0x4 MSTORE PUSH1 0x24 PUSH1 0x0 REVERT JUMPDEST PUSH1 0x0 PUSH2 0xA20 DUP3 PUSH2 0x6A6 JUMP JUMPDEST SWAP2 POP PUSH2 0xA2B DUP4 PUSH2 0x6A6 JUMP JUMPDEST SWAP3 POP DUP3 DUP3 ADD SWAP1 POP DUP1 DUP3 GT ISZERO PUSH2 0xA43 JUMPI PUSH2 0xA42 PUSH2 0x9E6 JUMP JUMPDEST JUMPDEST SWAP3 SWAP2 POP POP JUMP JUMPDEST PUSH1 0x0 PUSH2 0xA54 DUP3 PUSH2 0x6A6 JUMP JUMPDEST SWAP2 POP PUSH2 0xA5F DUP4 PUSH2 0x6A6 JUMP JUMPDEST SWAP3 POP DUP3 DUP3 MUL PUSH2 0xA6D DUP2 PUSH2 0x6A6 JUMP JUMPDEST SWAP2 POP DUP3 DUP3 DIV DUP5 EQ DUP4 ISZERO OR PUSH2 0xA84 JUMPI PUSH2 0xA83 PUSH2 0x9E6 JUMP JUMPDEST JUMPDEST POP SWAP3 SWAP2 POP POP JUMP JUMPDEST PUSH32 0x4E487B7100000000000000000000000000000000000000000000000000000000 PUSH1 0x0 MSTORE PUSH1 0x12 PUSH1 0x4 MSTORE PUSH1 0x24 PUSH1 0x0 REVERT JUMPDEST PUSH1 0x0 PUSH2 0xAC5 DUP3 PUSH2 0x6A6 JUMP JUMPDEST SWAP2 POP PUSH2 0xAD0 DUP4 PUSH2 0x6A6 JUMP JUMPDEST SWAP3 POP DUP3 PUSH2 0xAE0 JUMPI PUSH2 0xADF PUSH2 0xA8B JUMP JUMPDEST JUMPDEST DUP3 DUP3 DIV SWAP1 POP SWAP3 SWAP2 POP POP JUMP JUMPDEST PUSH1 0x0 PUSH10 0xFFFFFFFFFFFFFFFFFFFF DUP3 AND SWAP1 POP SWAP2 SWAP1 POP JUMP JUMPDEST PUSH2 0xB0A DUP2 PUSH2 0xAEB JUMP JUMPDEST DUP2 EQ PUSH2 0xB15 JUMPI PUSH1 0x0 DUP1 REVERT JUMPDEST POP JUMP JUMPDEST PUSH1 0x0 DUP2 MLOAD SWAP1 POP PUSH2 0xB27 DUP2 PUSH2 0xB01 JUMP JUMPDEST SWAP3 SWAP2 POP POP JUMP JUMPDEST PUSH1 0x0 DUP2 SWAP1 POP SWAP2 SWAP1 POP JUMP JUMPDEST PUSH2 0xB40 DUP2 PUSH2 0xB2D JUMP JUMPDEST DUP2 EQ PUSH2 0xB4B JUMPI PUSH1 0x0 DUP1 REVERT JUMPDEST POP JUMP JUMPDEST PUSH1 0x0 DUP2 MLOAD SWAP1 POP PUSH2 0xB5D DUP2 PUSH2 0xB37 JUMP JUMPDEST SWAP3 SWAP2 POP POP JUMP JUMPDEST PUSH1 0x0 DUP2 MLOAD SWAP1 POP PUSH2 0xB72 DUP2 PUSH2 0x794 JUMP JUMPDEST SWAP3 SWAP2 POP POP JUMP JUMPDEST PUSH1 0x0 DUP1 PUSH1 0x0 DUP1 PUSH1 0x0 PUSH1 0xA0 DUP7 DUP9 SUB SLT ISZERO PUSH2 0xB94 JUMPI PUSH2 0xB93 PUSH2 0x6DA JUMP JUMPDEST JUMPDEST PUSH1 0x0 PUSH2 0xBA2 DUP9 DUP3 DUP10 ADD PUSH2 0xB18 JUMP JUMPDEST SWAP6 POP POP PUSH1 0x20 PUSH2 0xBB3 DUP9 DUP3 DUP10 ADD PUSH2 0xB4E JUMP JUMPDEST SWAP5 POP POP PUSH1 0x40 PUSH2 0xBC4 DUP9 DUP3 DUP10 ADD PUSH2 0xB63 JUMP JUMPDEST SWAP4 POP POP PUSH1 0x60 PUSH2 0xBD5 DUP9 DUP3 DUP10 ADD PUSH2 0xB63 JUMP JUMPDEST SWAP3 POP POP PUSH1 0x80 PUSH2 0xBE6 DUP9 DUP3 DUP10 ADD PUSH2 0xB18 JUMP JUMPDEST SWAP2 POP POP SWAP3 SWAP6 POP SWAP3 SWAP6 SWAP1 SWAP4 POP JUMP JUMPDEST PUSH1 0x0 PUSH2 0xBFE DUP3 PUSH2 0xB2D JUMP JUMPDEST SWAP2 POP PUSH2 0xC09 DUP4 PUSH2 0xB2D JUMP JUMPDEST SWAP3 POP DUP3 DUP3 MUL PUSH2 0xC17 DUP2 PUSH2 0xB2D JUMP JUMPDEST SWAP2 POP PUSH32 0x8000000000000000000000000000000000000000000000000000000000000000 DUP5 EQ PUSH1 0x0 DUP5 SLT AND ISZERO PUSH2 0xC4F JUMPI PUSH2 0xC4E PUSH2 0x9E6 JUMP JUMPDEST JUMPDEST DUP3 DUP3 SDIV DUP5 EQ DUP4 ISZERO OR PUSH2 0xC64 JUMPI PUSH2 0xC63 PUSH2 0x9E6 JUMP JUMPDEST JUMPDEST POP SWAP3 SWAP2 POP POP JUMP INVALID LOG2 PUSH5 0x6970667358 0x22 SLT KECCAK256 PUSH30 0xC5CE7CDC0F3E0C45B635A52EFEB26CCF29C1C2D614C410B341FFB1E57535 0xBB PUSH5 0x736F6C6343 STOP ADDMOD XOR STOP CALLER "
				},
				"gasEstimates": {
					"creation": {
						"codeDepositCost": "646600",
						"executionCost": "47055",
						"totalCost": "693655"
					},
					"external": {
						"addressToAmountFunded(address)": "2836",
						"fund()": "infinite",
						"funders(uint256)": "5044",
						"minimumUSD()": "2407",
						"owner()": "2558",
						"withdraw()": "infinite"
					}
				},
				"methodIdentifiers": {
					"addressToAmountFunded(address)": "3e47d6f3",
					"fund()": "b60d4288",
					"funders(uint256)": "dc0d3dff",
					"minimumUSD()": "3430a88c",
					"owner()": "8da5cb5b",
					"withdraw()": "3ccfd60b"
				}
			},
			"storageLayout": {
				"storage": [
					{
						"astId": 57,
						"contract": "FundMe/FundMe.sol:FundMe",
						"label": "minimumUSD",
						"offset": 0,
						"slot": "0",
						"type": "t_uint256"
					},
					{
						"astId": 60,
						"contract": "FundMe/FundMe.sol:FundMe",
						"label": "funders",
						"offset": 0,
						"slot": "1",
						"type": "t_array(t_address)dyn_storage"
					},
					{
						"astId": 64,
						"contract": "FundMe/FundMe.sol:FundMe",
						"label": "addressToAmountFunded",
						"offset": 0,
						"slot": "2",
						"type": "t_mapping(t_address,t_uint256)"
					},
					{
						"astId": 66,
						"contract": "FundMe/FundMe.sol:FundMe",
						"label": "owner",
						"offset": 0,
						"slot": "3",
						"type": "t_address"
					}
				],
				"types": {
					"t_address": {
						"encoding": "inplace",
						"label": "address",
						"numberOfBytes": "20"
					},
					"t_array(t_address)dyn_storage": {
						"base": "t_address",
						"encoding": "dynamic_array",
						"label": "address[]",
						"numberOfBytes": "32"
					},
					"t_mapping(t_address,t_uint256)": {
						"encoding": "mapping",
						"key": "t_address",
						"label": "mapping(address => uint256)",
						"numberOfBytes": "32",
						"value": "t_uint256"
					},
					"t_uint256": {
						"encoding": "inplace",
						"label": "uint256",
						"numberOfBytes": "32"
					}
				}
			},
			"userdoc": {
				"kind": "user",
				"methods": {},
				"version": 1
			}
		}
	}
}