{
	"FundMe/FundMe.sol": {
		"FundMe": {
			"abi": [
				{
					"inputs": [],
					"name": "fund",
					"outputs": [],
					"stateMutability": "payable",
					"type": "function"
				},
				{
					"inputs": [],
					"name": "withdraw",
					"outputs": [],
					"stateMutability": "nonpayable",
					"type": "function"
				}
			],
			"devdoc": {
				"kind": "dev",
				"methods": {},
				"version": 1
			},
			"evm": {
				"assembly": "    /* \"FundMe/FundMe.sol\":144:495  contract FundMe{... */\n  mstore(0x40, 0x80)\n  callvalue\n  dup1\n  iszero\n  tag_1\n  jumpi\n  0x00\n  dup1\n  revert\ntag_1:\n  pop\n  dataSize(sub_0)\n  dup1\n  dataOffset(sub_0)\n  0x00\n  codecopy\n  0x00\n  return\nstop\n\nsub_0: assembly {\n        /* \"FundMe/FundMe.sol\":144:495  contract FundMe{... */\n      mstore(0x40, 0x80)\n      jumpi(tag_1, lt(calldatasize, 0x04))\n      shr(0xe0, calldataload(0x00))\n      dup1\n      0x3ccfd60b\n      eq\n      tag_2\n      jumpi\n      dup1\n      0xb60d4288\n      eq\n      tag_3\n      jumpi\n    tag_1:\n      0x00\n      dup1\n      revert\n        /* \"FundMe/FundMe.sol\":463:492  function withdraw() public {} */\n    tag_2:\n      callvalue\n      dup1\n      iszero\n      tag_4\n      jumpi\n      0x00\n      dup1\n      revert\n    tag_4:\n      pop\n      tag_5\n      tag_6\n      jump\t// in\n    tag_5:\n      stop\n        /* \"FundMe/FundMe.sol\":166:455  function fund() public payable {... */\n    tag_3:\n      tag_7\n      tag_8\n      jump\t// in\n    tag_7:\n      stop\n        /* \"FundMe/FundMe.sol\":463:492  function withdraw() public {} */\n    tag_6:\n      jump\t// out\n        /* \"FundMe/FundMe.sol\":166:455  function fund() public payable {... */\n    tag_8:\n        /* \"FundMe/FundMe.sol\":359:363  1e18 */\n      0x0de0b6b3a7640000\n        /* \"FundMe/FundMe.sol\":347:356  msg.value */\n      callvalue\n        /* \"FundMe/FundMe.sol\":347:363  msg.value > 1e18 */\n      gt\n        /* \"FundMe/FundMe.sol\":339:390  require(msg.value > 1e18, \"didn't sent enough Wei\") */\n      tag_11\n      jumpi\n      mload(0x40)\n      0x08c379a000000000000000000000000000000000000000000000000000000000\n      dup2\n      mstore\n      0x04\n      add\n      tag_12\n      swap1\n      tag_13\n      jump\t// in\n    tag_12:\n      mload(0x40)\n      dup1\n      swap2\n      sub\n      swap1\n      revert\n    tag_11:\n        /* \"FundMe/FundMe.sol\":166:455  function fund() public payable {... */\n      jump\t// out\n        /* \"#utility.yul\":7:176   */\n    tag_14:\n        /* \"#utility.yul\":91:102   */\n      0x00\n        /* \"#utility.yul\":125:131   */\n      dup3\n        /* \"#utility.yul\":120:123   */\n      dup3\n        /* \"#utility.yul\":113:132   */\n      mstore\n        /* \"#utility.yul\":165:169   */\n      0x20\n        /* \"#utility.yul\":160:163   */\n      dup3\n        /* \"#utility.yul\":156:170   */\n      add\n        /* \"#utility.yul\":141:170   */\n      swap1\n      pop\n        /* \"#utility.yul\":7:176   */\n      swap3\n      swap2\n      pop\n      pop\n      jump\t// out\n        /* \"#utility.yul\":182:354   */\n    tag_15:\n        /* \"#utility.yul\":322:346   */\n      0x6469646e27742073656e7420656e6f7567682057656900000000000000000000\n        /* \"#utility.yul\":318:319   */\n      0x00\n        /* \"#utility.yul\":310:316   */\n      dup3\n        /* \"#utility.yul\":306:320   */\n      add\n        /* \"#utility.yul\":299:347   */\n      mstore\n        /* \"#utility.yul\":182:354   */\n      pop\n      jump\t// out\n        /* \"#utility.yul\":360:726   */\n    tag_16:\n        /* \"#utility.yul\":502:505   */\n      0x00\n        /* \"#utility.yul\":523:590   */\n      tag_21\n        /* \"#utility.yul\":587:589   */\n      0x16\n        /* \"#utility.yul\":582:585   */\n      dup4\n        /* \"#utility.yul\":523:590   */\n      tag_14\n      jump\t// in\n    tag_21:\n        /* \"#utility.yul\":516:590   */\n      swap2\n      pop\n        /* \"#utility.yul\":599:692   */\n      tag_22\n        /* \"#utility.yul\":688:691   */\n      dup3\n        /* \"#utility.yul\":599:692   */\n      tag_15\n      jump\t// in\n    tag_22:\n        /* \"#utility.yul\":717:719   */\n      0x20\n        /* \"#utility.yul\":712:715   */\n      dup3\n        /* \"#utility.yul\":708:720   */\n      add\n        /* \"#utility.yul\":701:720   */\n      swap1\n      pop\n        /* \"#utility.yul\":360:726   */\n      swap2\n      swap1\n      pop\n      jump\t// out\n        /* \"#utility.yul\":732:1151   */\n    tag_13:\n        /* \"#utility.yul\":898:902   */\n      0x00\n        /* \"#utility.yul\":936:938   */\n      0x20\n        /* \"#utility.yul\":925:934   */\n      dup3\n        /* \"#utility.yul\":921:939   */\n      add\n        /* \"#utility.yul\":913:939   */\n      swap1\n      pop\n        /* \"#utility.yul\":985:994   */\n      dup2\n        /* \"#utility.yul\":979:983   */\n      dup2\n        /* \"#utility.yul\":975:995   */\n      sub\n        /* \"#utility.yul\":971:972   */\n      0x00\n        /* \"#utility.yul\":960:969   */\n      dup4\n        /* \"#utility.yul\":956:973   */\n      add\n        /* \"#utility.yul\":949:996   */\n      mstore\n        /* \"#utility.yul\":1013:1144   */\n      tag_24\n        /* \"#utility.yul\":1139:1143   */\n      dup2\n        /* \"#utility.yul\":1013:1144   */\n      tag_16\n      jump\t// in\n    tag_24:\n        /* \"#utility.yul\":1005:1144   */\n      swap1\n      pop\n        /* \"#utility.yul\":732:1151   */\n      swap2\n      swap1\n      pop\n      jump\t// out\n\n    auxdata: 0xa2646970667358221220d24f33ba6ac51d898c1fc1adc917e6e7f5e2ce3ee504e7cea049539762d708d764736f6c63430008180033\n}\n",
				"bytecode": {
					"linkReferences": {},
					"object": "608060405234801561001057600080fd5b50610150806100206000396000f3fe6080604052600436106100295760003560e01c80633ccfd60b1461002e578063b60d428814610045575b600080fd5b34801561003a57600080fd5b5061004361004f565b005b61004d610051565b005b565b670de0b6b3a7640000341161009b576040517f08c379a0000000000000000000000000000000000000000000000000000000008152600401610092906100fa565b60405180910390fd5b565b600082825260208201905092915050565b7f6469646e27742073656e7420656e6f7567682057656900000000000000000000600082015250565b60006100e460168361009d565b91506100ef826100ae565b602082019050919050565b60006020820190508181036000830152610113816100d7565b905091905056fea2646970667358221220d24f33ba6ac51d898c1fc1adc917e6e7f5e2ce3ee504e7cea049539762d708d764736f6c63430008180033",
					"opcodes": "PUSH1 0x80 PUSH1 0x40 MSTORE CALLVALUE DUP1 ISZERO PUSH2 0x10 JUMPI PUSH1 0x0 DUP1 REVERT JUMPDEST POP PUSH2 0x150 DUP1 PUSH2 0x20 PUSH1 0x0 CODECOPY PUSH1 0x0 RETURN INVALID PUSH1 0x80 PUSH1 0x40 MSTORE PUSH1 0x4 CALLDATASIZE LT PUSH2 0x29 JUMPI PUSH1 0x0 CALLDATALOAD PUSH1 0xE0 SHR DUP1 PUSH4 0x3CCFD60B EQ PUSH2 0x2E JUMPI DUP1 PUSH4 0xB60D4288 EQ PUSH2 0x45 JUMPI JUMPDEST PUSH1 0x0 DUP1 REVERT JUMPDEST CALLVALUE DUP1 ISZERO PUSH2 0x3A JUMPI PUSH1 0x0 DUP1 REVERT JUMPDEST POP PUSH2 0x43 PUSH2 0x4F JUMP JUMPDEST STOP JUMPDEST PUSH2 0x4D PUSH2 0x51 JUMP JUMPDEST STOP JUMPDEST JUMP JUMPDEST PUSH8 0xDE0B6B3A7640000 CALLVALUE GT PUSH2 0x9B JUMPI PUSH1 0x40 MLOAD PUSH32 0x8C379A000000000000000000000000000000000000000000000000000000000 DUP2 MSTORE PUSH1 0x4 ADD PUSH2 0x92 SWAP1 PUSH2 0xFA JUMP JUMPDEST PUSH1 0x40 MLOAD DUP1 SWAP2 SUB SWAP1 REVERT JUMPDEST JUMP JUMPDEST PUSH1 0x0 DUP3 DUP3 MSTORE PUSH1 0x20 DUP3 ADD SWAP1 POP SWAP3 SWAP2 POP POP JUMP JUMPDEST PUSH32 0x6469646E27742073656E7420656E6F7567682057656900000000000000000000 PUSH1 0x0 DUP3 ADD MSTORE POP JUMP JUMPDEST PUSH1 0x0 PUSH2 0xE4 PUSH1 0x16 DUP4 PUSH2 0x9D JUMP JUMPDEST SWAP2 POP PUSH2 0xEF DUP3 PUSH2 0xAE JUMP JUMPDEST PUSH1 0x20 DUP3 ADD SWAP1 POP SWAP2 SWAP1 POP JUMP JUMPDEST PUSH1 0x0 PUSH1 0x20 DUP3 ADD SWAP1 POP DUP2 DUP2 SUB PUSH1 0x0 DUP4 ADD MSTORE PUSH2 0x113 DUP2 PUSH2 0xD7 JUMP JUMPDEST SWAP1 POP SWAP2 SWAP1 POP JUMP INVALID LOG2 PUSH5 0x6970667358 0x22 SLT KECCAK256 0xD2 0x4F CALLER 0xBA PUSH11 0xC51D898C1FC1ADC917E6E7 CREATE2 0xE2 0xCE RETURNDATACOPY 0xE5 DIV 0xE7 0xCE LOG0 BLOBHASH MSTORE8 SWAP8 PUSH3 0xD708D7 PUSH5 0x736F6C6343 STOP ADDMOD XOR STOP CALLER "
				},
				"gasEstimates": {
					"creation": {
						"codeDepositCost": "67200",
						"executionCost": "117",
						"totalCost": "67317"
					},
					"external": {
						"fund()": "431",
						"withdraw()": "122"
					}
				},
				"methodIdentifiers": {
					"fund()": "b60d4288",
					"withdraw()": "3ccfd60b"
				}
			},
			"storageLayout": {
				"storage": [],
				"types": null
			},
			"userdoc": {
				"kind": "user",
				"methods": {},
				"version": 1
			}
		}
	}
}