{
	"Create Solidity Smart Contract/SimpleStorage.sol": {
		"SimpleStorage": {
			"abi": [
				{
					"inputs": [
						{
							"internalType": "string",
							"name": "_name",
							"type": "string"
						},
						{
							"internalType": "uint256",
							"name": "_favoriteNumber",
							"type": "uint256"
						}
					],
					"name": "addPerson",
					"outputs": [],
					"stateMutability": "nonpayable",
					"type": "function"
				},
				{
					"inputs": [
						{
							"internalType": "uint256",
							"name": "",
							"type": "uint256"
						}
					],
					"name": "listOfPeople",
					"outputs": [
						{
							"internalType": "uint256",
							"name": "favoriteNumber",
							"type": "uint256"
						},
						{
							"internalType": "string",
							"name": "name",
							"type": "string"
						}
					],
					"stateMutability": "view",
					"type": "function"
				},
				{
					"inputs": [
						{
							"internalType": "string",
							"name": "",
							"type": "string"
						}
					],
					"name": "nameToFavoriteNumber",
					"outputs": [
						{
							"internalType": "uint256",
							"name": "",
							"type": "uint256"
						}
					],
					"stateMutability": "view",
					"type": "function"
				},
				{
					"inputs": [],
					"name": "retrieve",
					"outputs": [
						{
							"internalType": "uint256",
							"name": "",
							"type": "uint256"
						}
					],
					"stateMutability": "view",
					"type": "function"
				},
				{
					"inputs": [
						{
							"internalType": "uint256",
							"name": "_favoriteNumber",
							"type": "uint256"
						}
					],
					"name": "store",
					"outputs": [],
					"stateMutability": "nonpayable",
					"type": "function"
				}
			],
			"devdoc": {
				"kind": "dev",
				"methods": {},
				"version": 1
			},
			"evm": {
				"assembly": "    /* \"Create Solidity Smart Contract/SimpleStorage.sol\":57:713  contract SimpleStorage {... */\n  mstore(0x40, 0x80)\n  callvalue\n  dup1\n  iszero\n  tag_1\n  jumpi\n  0x00\n  dup1\n  revert\ntag_1:\n  pop\n  dataSize(sub_0)\n  dup1\n  dataOffset(sub_0)\n  0x00\n  codecopy\n  0x00\n  return\nstop\n\nsub_0: assembly {\n        /* \"Create Solidity Smart Contract/SimpleStorage.sol\":57:713  contract SimpleStorage {... */\n      mstore(0x40, 0x80)\n      callvalue\n      dup1\n      iszero\n      tag_1\n      jumpi\n      0x00\n      dup1\n      revert\n    tag_1:\n      pop\n      jumpi(tag_2, lt(calldatasize, 0x04))\n      shr(0xe0, calldataload(0x00))\n      dup1\n      0x2e64cec1\n      eq\n      tag_3\n      jumpi\n      dup1\n      0x2ebce631\n      eq\n      tag_4\n      jumpi\n      dup1\n      0x6057361d\n      eq\n      tag_5\n      jumpi\n      dup1\n      0x6f760f41\n      eq\n      tag_6\n      jumpi\n      dup1\n      0x8bab8dd5\n      eq\n      tag_7\n      jumpi\n    tag_2:\n      0x00\n      dup1\n      revert\n        /* \"Create Solidity Smart Contract/SimpleStorage.sol\":394:475  function retrieve() public view returns (uint256) {... */\n    tag_3:\n        /* \"Create Solidity Smart Contract/SimpleStorage.sol\":435:442  uint256 */\n      0x00\n        /* \"Create Solidity Smart Contract/SimpleStorage.sol\":455:471  myFavoriteNumber */\n      sload\n        /* \"Create Solidity Smart Contract/SimpleStorage.sol\":394:475  function retrieve() public view returns (uint256) {... */\n    tag_8:\n      mload(0x40)\n        /* \"#utility.yul\":160:185   */\n      swap1\n      dup2\n      mstore\n        /* \"#utility.yul\":148:150   */\n      0x20\n        /* \"#utility.yul\":133:151   */\n      add\n        /* \"Create Solidity Smart Contract/SimpleStorage.sol\":394:475  function retrieve() public view returns (uint256) {... */\n    tag_10:\n      mload(0x40)\n      dup1\n      swap2\n      sub\n      swap1\n      return\n        /* \"Create Solidity Smart Contract/SimpleStorage.sol\":210:238  Person[] public listOfPeople */\n    tag_4:\n      tag_12\n      tag_13\n      calldatasize\n      0x04\n      tag_14\n      jump\t// in\n    tag_13:\n      tag_15\n      jump\t// in\n    tag_12:\n      mload(0x40)\n      tag_10\n      swap3\n      swap2\n      swap1\n      tag_17\n      jump\t// in\n        /* \"Create Solidity Smart Contract/SimpleStorage.sol\":302:391  function store(uint256 _favoriteNumber) public {... */\n    tag_5:\n      tag_18\n      tag_19\n      calldatasize\n      0x04\n      tag_14\n      jump\t// in\n    tag_19:\n        /* \"Create Solidity Smart Contract/SimpleStorage.sol\":353:369  myFavoriteNumber */\n      0x00\n        /* \"Create Solidity Smart Contract/SimpleStorage.sol\":353:387  myFavoriteNumber = _favoriteNumber */\n      sstore\n        /* \"Create Solidity Smart Contract/SimpleStorage.sol\":302:391  function store(uint256 _favoriteNumber) public {... */\n      jump\n    tag_18:\n      stop\n        /* \"Create Solidity Smart Contract/SimpleStorage.sol\":478:709  function addPerson(string memory _name, uint256 _favoriteNumber) public {... */\n    tag_6:\n      tag_18\n      tag_22\n      calldatasize\n      0x04\n      tag_23\n      jump\t// in\n    tag_22:\n      tag_24\n      jump\t// in\n        /* \"Create Solidity Smart Contract/SimpleStorage.sol\":244:298  mapping(string => uint256) public nameToFavoriteNumber */\n    tag_7:\n      tag_8\n      tag_26\n      calldatasize\n      0x04\n      tag_27\n      jump\t// in\n    tag_26:\n      dup1\n      mload\n      0x20\n      dup2\n      dup4\n      add\n      dup2\n      add\n      dup1\n      mload\n      0x03\n      dup3\n      mstore\n      swap3\n      dup3\n      add\n      swap2\n      swap1\n      swap4\n      add\n      keccak256\n      swap2\n      mstore\n      sload\n      dup2\n      jump\n        /* \"Create Solidity Smart Contract/SimpleStorage.sol\":210:238  Person[] public listOfPeople */\n    tag_15:\n      0x02\n      dup2\n      dup2\n      sload\n      dup2\n      lt\n      tag_31\n      jumpi\n      0x00\n      dup1\n      revert\n    tag_31:\n      0x00\n      swap2\n      dup3\n      mstore\n      0x20\n      swap1\n      swap2\n      keccak256\n      0x02\n      swap1\n      swap2\n      mul\n      add\n      dup1\n      sload\n      0x01\n      dup3\n      add\n      dup1\n      sload\n      swap2\n      swap4\n      pop\n      swap1\n      tag_33\n      swap1\n      tag_34\n      jump\t// in\n    tag_33:\n      dup1\n      0x1f\n      add\n      0x20\n      dup1\n      swap2\n      div\n      mul\n      0x20\n      add\n      mload(0x40)\n      swap1\n      dup2\n      add\n      0x40\n      mstore\n      dup1\n      swap3\n      swap2\n      swap1\n      dup2\n      dup2\n      mstore\n      0x20\n      add\n      dup3\n      dup1\n      sload\n      tag_35\n      swap1\n      tag_34\n      jump\t// in\n    tag_35:\n      dup1\n      iszero\n      tag_36\n      jumpi\n      dup1\n      0x1f\n      lt\n      tag_37\n      jumpi\n      0x0100\n      dup1\n      dup4\n      sload\n      div\n      mul\n      dup4\n      mstore\n      swap2\n      0x20\n      add\n      swap2\n      jump(tag_36)\n    tag_37:\n      dup3\n      add\n      swap2\n      swap1\n      0x00\n      mstore\n      keccak256(0x00, 0x20)\n      swap1\n    tag_38:\n      dup2\n      sload\n      dup2\n      mstore\n      swap1\n      0x01\n      add\n      swap1\n      0x20\n      add\n      dup1\n      dup4\n      gt\n      tag_38\n      jumpi\n      dup3\n      swap1\n      sub\n      0x1f\n      and\n      dup3\n      add\n      swap2\n    tag_36:\n      pop\n      pop\n      pop\n      pop\n      pop\n      swap1\n      pop\n      dup3\n      jump\t// out\n        /* \"Create Solidity Smart Contract/SimpleStorage.sol\":478:709  function addPerson(string memory _name, uint256 _favoriteNumber) public {... */\n    tag_24:\n        /* \"Create Solidity Smart Contract/SimpleStorage.sol\":619:649  Person(_favoriteNumber, _name) */\n      0x40\n      dup1\n      mload\n      dup1\n      dup3\n      add\n      swap1\n      swap2\n      mstore\n      dup2\n      dup2\n      mstore\n      0x20\n      dup2\n      add\n      dup4\n      dup2\n      mstore\n        /* \"Create Solidity Smart Contract/SimpleStorage.sol\":601:613  listOfPeople */\n      0x02\n        /* \"Create Solidity Smart Contract/SimpleStorage.sol\":601:650  listOfPeople.push(Person(_favoriteNumber, _name)) */\n      dup1\n      sload\n      0x01\n      dup2\n      add\n      dup3\n      sstore\n      0x00\n      dup3\n      swap1\n      mstore\n      dup4\n      mload\n      swap2\n      mul\n      0x405787fa12a823e0f2b7631cc41b3ba8828b3321ca811111fa75cd3aa3bb5ace\n      dup2\n      add\n      swap2\n      dup3\n      sstore\n      swap2\n      mload\n      swap1\n      swap2\n      0x405787fa12a823e0f2b7631cc41b3ba8828b3321ca811111fa75cd3aa3bb5acf\n      add\n      swap1\n      tag_42\n      swap1\n      dup3\n      tag_43\n      jump\t// in\n    tag_42:\n      pop\n      pop\n      pop\n        /* \"Create Solidity Smart Contract/SimpleStorage.sol\":690:705  _favoriteNumber */\n      dup1\n        /* \"Create Solidity Smart Contract/SimpleStorage.sol\":660:680  nameToFavoriteNumber */\n      0x03\n        /* \"Create Solidity Smart Contract/SimpleStorage.sol\":681:686  _name */\n      dup4\n        /* \"Create Solidity Smart Contract/SimpleStorage.sol\":660:687  nameToFavoriteNumber[_name] */\n      mload(0x40)\n      tag_44\n      swap2\n      swap1\n      tag_45\n      jump\t// in\n    tag_44:\n      swap1\n      dup2\n      mstore\n      mload(0x40)\n      swap1\n      dup2\n      swap1\n      sub\n      0x20\n      add\n      swap1\n      keccak256\n        /* \"Create Solidity Smart Contract/SimpleStorage.sol\":660:705  nameToFavoriteNumber[_name] = _favoriteNumber */\n      sstore\n      pop\n      pop\n        /* \"Create Solidity Smart Contract/SimpleStorage.sol\":478:709  function addPerson(string memory _name, uint256 _favoriteNumber) public {... */\n      jump\t// out\n        /* \"#utility.yul\":196:376   */\n    tag_14:\n        /* \"#utility.yul\":255:261   */\n      0x00\n        /* \"#utility.yul\":308:310   */\n      0x20\n        /* \"#utility.yul\":296:305   */\n      dup3\n        /* \"#utility.yul\":287:294   */\n      dup5\n        /* \"#utility.yul\":283:306   */\n      sub\n        /* \"#utility.yul\":279:311   */\n      slt\n        /* \"#utility.yul\":276:328   */\n      iszero\n      tag_55\n      jumpi\n        /* \"#utility.yul\":324:325   */\n      0x00\n        /* \"#utility.yul\":321:322   */\n      dup1\n        /* \"#utility.yul\":314:326   */\n      revert\n        /* \"#utility.yul\":276:328   */\n    tag_55:\n      pop\n        /* \"#utility.yul\":347:370   */\n      calldataload\n      swap2\n        /* \"#utility.yul\":196:376   */\n      swap1\n      pop\n      jump\t// out\n        /* \"#utility.yul\":381:631   */\n    tag_46:\n        /* \"#utility.yul\":466:467   */\n      0x00\n        /* \"#utility.yul\":476:589   */\n    tag_57:\n        /* \"#utility.yul\":490:496   */\n      dup4\n        /* \"#utility.yul\":487:488   */\n      dup2\n        /* \"#utility.yul\":484:497   */\n      lt\n        /* \"#utility.yul\":476:589   */\n      iszero\n      tag_59\n      jumpi\n        /* \"#utility.yul\":566:577   */\n      dup2\n      dup2\n      add\n        /* \"#utility.yul\":560:578   */\n      mload\n        /* \"#utility.yul\":547:558   */\n      dup4\n      dup3\n      add\n        /* \"#utility.yul\":540:579   */\n      mstore\n        /* \"#utility.yul\":512:514   */\n      0x20\n        /* \"#utility.yul\":505:515   */\n      add\n        /* \"#utility.yul\":476:589   */\n      jump(tag_57)\n    tag_59:\n      pop\n      pop\n        /* \"#utility.yul\":623:624   */\n      0x00\n        /* \"#utility.yul\":605:621   */\n      swap2\n      add\n        /* \"#utility.yul\":598:625   */\n      mstore\n        /* \"#utility.yul\":381:631   */\n      jump\t// out\n        /* \"#utility.yul\":636:1103   */\n    tag_17:\n        /* \"#utility.yul\":813:819   */\n      dup3\n        /* \"#utility.yul\":802:811   */\n      dup2\n        /* \"#utility.yul\":795:820   */\n      mstore\n        /* \"#utility.yul\":856:858   */\n      0x40\n        /* \"#utility.yul\":851:853   */\n      0x20\n        /* \"#utility.yul\":840:849   */\n      dup3\n        /* \"#utility.yul\":836:854   */\n      add\n        /* \"#utility.yul\":829:859   */\n      mstore\n        /* \"#utility.yul\":776:780   */\n      0x00\n        /* \"#utility.yul\":888:894   */\n      dup3\n        /* \"#utility.yul\":882:895   */\n      mload\n        /* \"#utility.yul\":931:937   */\n      dup1\n        /* \"#utility.yul\":926:928   */\n      0x40\n        /* \"#utility.yul\":915:924   */\n      dup5\n        /* \"#utility.yul\":911:929   */\n      add\n        /* \"#utility.yul\":904:938   */\n      mstore\n        /* \"#utility.yul\":947:1026   */\n      tag_61\n        /* \"#utility.yul\":1019:1025   */\n      dup2\n        /* \"#utility.yul\":1014:1016   */\n      0x60\n        /* \"#utility.yul\":1003:1012   */\n      dup6\n        /* \"#utility.yul\":999:1017   */\n      add\n        /* \"#utility.yul\":994:996   */\n      0x20\n        /* \"#utility.yul\":986:992   */\n      dup8\n        /* \"#utility.yul\":982:997   */\n      add\n        /* \"#utility.yul\":947:1026   */\n      tag_46\n      jump\t// in\n    tag_61:\n        /* \"#utility.yul\":1087:1089   */\n      0x1f\n        /* \"#utility.yul\":1066:1081   */\n      add\n      not(0x1f)\n        /* \"#utility.yul\":1062:1091   */\n      and\n        /* \"#utility.yul\":1047:1092   */\n      swap2\n      swap1\n      swap2\n      add\n        /* \"#utility.yul\":1094:1096   */\n      0x60\n        /* \"#utility.yul\":1043:1097   */\n      add\n      swap4\n        /* \"#utility.yul\":636:1103   */\n      swap3\n      pop\n      pop\n      pop\n      jump\t// out\n        /* \"#utility.yul\":1108:1235   */\n    tag_47:\n        /* \"#utility.yul\":1169:1179   */\n      0x4e487b71\n        /* \"#utility.yul\":1164:1167   */\n      0xe0\n        /* \"#utility.yul\":1160:1180   */\n      shl\n        /* \"#utility.yul\":1157:1158   */\n      0x00\n        /* \"#utility.yul\":1150:1181   */\n      mstore\n        /* \"#utility.yul\":1200:1204   */\n      0x41\n        /* \"#utility.yul\":1197:1198   */\n      0x04\n        /* \"#utility.yul\":1190:1205   */\n      mstore\n        /* \"#utility.yul\":1224:1228   */\n      0x24\n        /* \"#utility.yul\":1221:1222   */\n      0x00\n        /* \"#utility.yul\":1214:1229   */\n      revert\n        /* \"#utility.yul\":1240:1959   */\n    tag_48:\n        /* \"#utility.yul\":1283:1288   */\n      0x00\n        /* \"#utility.yul\":1336:1339   */\n      dup3\n        /* \"#utility.yul\":1329:1333   */\n      0x1f\n        /* \"#utility.yul\":1321:1327   */\n      dup4\n        /* \"#utility.yul\":1317:1334   */\n      add\n        /* \"#utility.yul\":1313:1340   */\n      slt\n        /* \"#utility.yul\":1303:1358   */\n      tag_64\n      jumpi\n        /* \"#utility.yul\":1354:1355   */\n      0x00\n        /* \"#utility.yul\":1351:1352   */\n      dup1\n        /* \"#utility.yul\":1344:1356   */\n      revert\n        /* \"#utility.yul\":1303:1358   */\n    tag_64:\n        /* \"#utility.yul\":1390:1396   */\n      dup2\n        /* \"#utility.yul\":1377:1397   */\n      calldataload\n        /* \"#utility.yul\":1416:1434   */\n      0xffffffffffffffff\n        /* \"#utility.yul\":1453:1455   */\n      dup1\n        /* \"#utility.yul\":1449:1451   */\n      dup3\n        /* \"#utility.yul\":1446:1456   */\n      gt\n        /* \"#utility.yul\":1443:1479   */\n      iszero\n      tag_66\n      jumpi\n        /* \"#utility.yul\":1459:1477   */\n      tag_66\n      tag_47\n      jump\t// in\n    tag_66:\n        /* \"#utility.yul\":1534:1536   */\n      0x40\n        /* \"#utility.yul\":1528:1537   */\n      mload\n        /* \"#utility.yul\":1502:1504   */\n      0x1f\n        /* \"#utility.yul\":1588:1601   */\n      dup4\n      add\n      not(0x1f)\n        /* \"#utility.yul\":1584:1606   */\n      swap1\n      dup2\n      and\n        /* \"#utility.yul\":1608:1610   */\n      0x3f\n        /* \"#utility.yul\":1580:1611   */\n      add\n        /* \"#utility.yul\":1576:1616   */\n      and\n        /* \"#utility.yul\":1564:1617   */\n      dup2\n      add\n      swap1\n        /* \"#utility.yul\":1632:1650   */\n      dup3\n      dup3\n      gt\n        /* \"#utility.yul\":1652:1674   */\n      dup2\n      dup4\n      lt\n        /* \"#utility.yul\":1629:1675   */\n      or\n        /* \"#utility.yul\":1626:1698   */\n      iszero\n      tag_68\n      jumpi\n        /* \"#utility.yul\":1678:1696   */\n      tag_68\n      tag_47\n      jump\t// in\n    tag_68:\n        /* \"#utility.yul\":1718:1728   */\n      dup2\n        /* \"#utility.yul\":1714:1716   */\n      0x40\n        /* \"#utility.yul\":1707:1729   */\n      mstore\n        /* \"#utility.yul\":1753:1755   */\n      dup4\n        /* \"#utility.yul\":1745:1751   */\n      dup2\n        /* \"#utility.yul\":1738:1756   */\n      mstore\n        /* \"#utility.yul\":1799:1802   */\n      dup7\n        /* \"#utility.yul\":1792:1796   */\n      0x20\n        /* \"#utility.yul\":1787:1789   */\n      dup6\n        /* \"#utility.yul\":1779:1785   */\n      dup9\n        /* \"#utility.yul\":1775:1790   */\n      add\n        /* \"#utility.yul\":1771:1797   */\n      add\n        /* \"#utility.yul\":1768:1803   */\n      gt\n        /* \"#utility.yul\":1765:1820   */\n      iszero\n      tag_69\n      jumpi\n        /* \"#utility.yul\":1816:1817   */\n      0x00\n        /* \"#utility.yul\":1813:1814   */\n      dup1\n        /* \"#utility.yul\":1806:1818   */\n      revert\n        /* \"#utility.yul\":1765:1820   */\n    tag_69:\n        /* \"#utility.yul\":1880:1882   */\n      dup4\n        /* \"#utility.yul\":1873:1877   */\n      0x20\n        /* \"#utility.yul\":1865:1871   */\n      dup8\n        /* \"#utility.yul\":1861:1878   */\n      add\n        /* \"#utility.yul\":1854:1858   */\n      0x20\n        /* \"#utility.yul\":1846:1852   */\n      dup4\n        /* \"#utility.yul\":1842:1859   */\n      add\n        /* \"#utility.yul\":1829:1883   */\n      calldatacopy\n        /* \"#utility.yul\":1927:1928   */\n      0x00\n        /* \"#utility.yul\":1920:1924   */\n      0x20\n        /* \"#utility.yul\":1915:1917   */\n      dup6\n        /* \"#utility.yul\":1907:1913   */\n      dup4\n        /* \"#utility.yul\":1903:1918   */\n      add\n        /* \"#utility.yul\":1899:1925   */\n      add\n        /* \"#utility.yul\":1892:1929   */\n      mstore\n        /* \"#utility.yul\":1947:1953   */\n      dup1\n        /* \"#utility.yul\":1938:1953   */\n      swap5\n      pop\n      pop\n      pop\n      pop\n      pop\n        /* \"#utility.yul\":1240:1959   */\n      swap3\n      swap2\n      pop\n      pop\n      jump\t// out\n        /* \"#utility.yul\":1964:2354   */\n    tag_23:\n        /* \"#utility.yul\":2042:2048   */\n      0x00\n        /* \"#utility.yul\":2050:2056   */\n      dup1\n        /* \"#utility.yul\":2103:2105   */\n      0x40\n        /* \"#utility.yul\":2091:2100   */\n      dup4\n        /* \"#utility.yul\":2082:2089   */\n      dup6\n        /* \"#utility.yul\":2078:2101   */\n      sub\n        /* \"#utility.yul\":2074:2106   */\n      slt\n        /* \"#utility.yul\":2071:2123   */\n      iszero\n      tag_71\n      jumpi\n        /* \"#utility.yul\":2119:2120   */\n      0x00\n        /* \"#utility.yul\":2116:2117   */\n      dup1\n        /* \"#utility.yul\":2109:2121   */\n      revert\n        /* \"#utility.yul\":2071:2123   */\n    tag_71:\n        /* \"#utility.yul\":2159:2168   */\n      dup3\n        /* \"#utility.yul\":2146:2169   */\n      calldataload\n        /* \"#utility.yul\":2192:2210   */\n      0xffffffffffffffff\n        /* \"#utility.yul\":2184:2190   */\n      dup2\n        /* \"#utility.yul\":2181:2211   */\n      gt\n        /* \"#utility.yul\":2178:2228   */\n      iszero\n      tag_72\n      jumpi\n        /* \"#utility.yul\":2224:2225   */\n      0x00\n        /* \"#utility.yul\":2221:2222   */\n      dup1\n        /* \"#utility.yul\":2214:2226   */\n      revert\n        /* \"#utility.yul\":2178:2228   */\n    tag_72:\n        /* \"#utility.yul\":2247:2297   */\n      tag_73\n        /* \"#utility.yul\":2289:2296   */\n      dup6\n        /* \"#utility.yul\":2280:2286   */\n      dup3\n        /* \"#utility.yul\":2269:2278   */\n      dup7\n        /* \"#utility.yul\":2265:2287   */\n      add\n        /* \"#utility.yul\":2247:2297   */\n      tag_48\n      jump\t// in\n    tag_73:\n        /* \"#utility.yul\":2237:2297   */\n      swap6\n        /* \"#utility.yul\":2344:2346   */\n      0x20\n        /* \"#utility.yul\":2329:2347   */\n      swap5\n      swap1\n      swap5\n      add\n        /* \"#utility.yul\":2316:2348   */\n      calldataload\n      swap5\n      pop\n      pop\n      pop\n      pop\n        /* \"#utility.yul\":1964:2354   */\n      jump\t// out\n        /* \"#utility.yul\":2359:2681   */\n    tag_27:\n        /* \"#utility.yul\":2428:2434   */\n      0x00\n        /* \"#utility.yul\":2481:2483   */\n      0x20\n        /* \"#utility.yul\":2469:2478   */\n      dup3\n        /* \"#utility.yul\":2460:2467   */\n      dup5\n        /* \"#utility.yul\":2456:2479   */\n      sub\n        /* \"#utility.yul\":2452:2484   */\n      slt\n        /* \"#utility.yul\":2449:2501   */\n      iszero\n      tag_75\n      jumpi\n        /* \"#utility.yul\":2497:2498   */\n      0x00\n        /* \"#utility.yul\":2494:2495   */\n      dup1\n        /* \"#utility.yul\":2487:2499   */\n      revert\n        /* \"#utility.yul\":2449:2501   */\n    tag_75:\n        /* \"#utility.yul\":2537:2546   */\n      dup2\n        /* \"#utility.yul\":2524:2547   */\n      calldataload\n        /* \"#utility.yul\":2570:2588   */\n      0xffffffffffffffff\n        /* \"#utility.yul\":2562:2568   */\n      dup2\n        /* \"#utility.yul\":2559:2589   */\n      gt\n        /* \"#utility.yul\":2556:2606   */\n      iszero\n      tag_76\n      jumpi\n        /* \"#utility.yul\":2602:2603   */\n      0x00\n        /* \"#utility.yul\":2599:2600   */\n      dup1\n        /* \"#utility.yul\":2592:2604   */\n      revert\n        /* \"#utility.yul\":2556:2606   */\n    tag_76:\n        /* \"#utility.yul\":2625:2675   */\n      tag_77\n        /* \"#utility.yul\":2667:2674   */\n      dup5\n        /* \"#utility.yul\":2658:2664   */\n      dup3\n        /* \"#utility.yul\":2647:2656   */\n      dup6\n        /* \"#utility.yul\":2643:2665   */\n      add\n        /* \"#utility.yul\":2625:2675   */\n      tag_48\n      jump\t// in\n    tag_77:\n        /* \"#utility.yul\":2615:2675   */\n      swap5\n        /* \"#utility.yul\":2359:2681   */\n      swap4\n      pop\n      pop\n      pop\n      pop\n      jump\t// out\n        /* \"#utility.yul\":2686:3066   */\n    tag_34:\n        /* \"#utility.yul\":2765:2766   */\n      0x01\n        /* \"#utility.yul\":2761:2773   */\n      dup2\n      dup2\n      shr\n      swap1\n        /* \"#utility.yul\":2808:2820   */\n      dup3\n      and\n      dup1\n        /* \"#utility.yul\":2829:2890   */\n      tag_79\n      jumpi\n        /* \"#utility.yul\":2883:2887   */\n      0x7f\n        /* \"#utility.yul\":2875:2881   */\n      dup3\n        /* \"#utility.yul\":2871:2888   */\n      and\n        /* \"#utility.yul\":2861:2888   */\n      swap2\n      pop\n        /* \"#utility.yul\":2829:2890   */\n    tag_79:\n        /* \"#utility.yul\":2936:2938   */\n      0x20\n        /* \"#utility.yul\":2928:2934   */\n      dup3\n        /* \"#utility.yul\":2925:2939   */\n      lt\n        /* \"#utility.yul\":2905:2923   */\n      dup2\n        /* \"#utility.yul\":2902:2940   */\n      sub\n        /* \"#utility.yul\":2899:3060   */\n      tag_80\n      jumpi\n        /* \"#utility.yul\":2982:2992   */\n      0x4e487b71\n        /* \"#utility.yul\":2977:2980   */\n      0xe0\n        /* \"#utility.yul\":2973:2993   */\n      shl\n        /* \"#utility.yul\":2970:2971   */\n      0x00\n        /* \"#utility.yul\":2963:2994   */\n      mstore\n        /* \"#utility.yul\":3017:3021   */\n      0x22\n        /* \"#utility.yul\":3014:3015   */\n      0x04\n        /* \"#utility.yul\":3007:3022   */\n      mstore\n        /* \"#utility.yul\":3045:3049   */\n      0x24\n        /* \"#utility.yul\":3042:3043   */\n      0x00\n        /* \"#utility.yul\":3035:3050   */\n      revert\n        /* \"#utility.yul\":2899:3060   */\n    tag_80:\n      pop\n        /* \"#utility.yul\":2686:3066   */\n      swap2\n      swap1\n      pop\n      jump\t// out\n        /* \"#utility.yul\":3197:3715   */\n    tag_50:\n        /* \"#utility.yul\":3299:3301   */\n      0x1f\n        /* \"#utility.yul\":3294:3297   */\n      dup3\n        /* \"#utility.yul\":3291:3302   */\n      gt\n        /* \"#utility.yul\":3288:3709   */\n      iszero\n      tag_83\n      jumpi\n        /* \"#utility.yul\":3335:3340   */\n      dup1\n        /* \"#utility.yul\":3332:3333   */\n      0x00\n        /* \"#utility.yul\":3325:3341   */\n      mstore\n        /* \"#utility.yul\":3379:3383   */\n      0x20\n        /* \"#utility.yul\":3376:3377   */\n      0x00\n        /* \"#utility.yul\":3366:3384   */\n      keccak256\n        /* \"#utility.yul\":3449:3451   */\n      0x1f\n        /* \"#utility.yul\":3437:3447   */\n      dup5\n        /* \"#utility.yul\":3433:3452   */\n      add\n        /* \"#utility.yul\":3430:3431   */\n      0x05\n        /* \"#utility.yul\":3426:3453   */\n      shr\n        /* \"#utility.yul\":3420:3424   */\n      dup2\n        /* \"#utility.yul\":3416:3454   */\n      add\n        /* \"#utility.yul\":3485:3489   */\n      0x20\n        /* \"#utility.yul\":3473:3483   */\n      dup6\n        /* \"#utility.yul\":3470:3490   */\n      lt\n        /* \"#utility.yul\":3467:3514   */\n      iszero\n      tag_84\n      jumpi\n      pop\n        /* \"#utility.yul\":3508:3512   */\n      dup1\n        /* \"#utility.yul\":3467:3514   */\n    tag_84:\n        /* \"#utility.yul\":3563:3565   */\n      0x1f\n        /* \"#utility.yul\":3558:3561   */\n      dup5\n        /* \"#utility.yul\":3554:3566   */\n      add\n        /* \"#utility.yul\":3551:3552   */\n      0x05\n        /* \"#utility.yul\":3547:3567   */\n      shr\n        /* \"#utility.yul\":3541:3545   */\n      dup3\n        /* \"#utility.yul\":3537:3568   */\n      add\n        /* \"#utility.yul\":3527:3568   */\n      swap2\n      pop\n        /* \"#utility.yul\":3618:3699   */\n    tag_85:\n        /* \"#utility.yul\":3636:3638   */\n      dup2\n        /* \"#utility.yul\":3629:3634   */\n      dup2\n        /* \"#utility.yul\":3626:3639   */\n      lt\n        /* \"#utility.yul\":3618:3699   */\n      iszero\n      tag_87\n      jumpi\n        /* \"#utility.yul\":3695:3696   */\n      0x00\n        /* \"#utility.yul\":3681:3697   */\n      dup2\n      sstore\n        /* \"#utility.yul\":3662:3663   */\n      0x01\n        /* \"#utility.yul\":3651:3664   */\n      add\n        /* \"#utility.yul\":3618:3699   */\n      jump(tag_85)\n    tag_87:\n        /* \"#utility.yul\":3622:3625   */\n      pop\n      pop\n        /* \"#utility.yul\":3288:3709   */\n    tag_83:\n        /* \"#utility.yul\":3197:3715   */\n      pop\n      pop\n      pop\n      jump\t// out\n        /* \"#utility.yul\":3891:5236   */\n    tag_43:\n        /* \"#utility.yul\":4017:4020   */\n      dup2\n        /* \"#utility.yul\":4011:4021   */\n      mload\n        /* \"#utility.yul\":4044:4062   */\n      0xffffffffffffffff\n        /* \"#utility.yul\":4036:4042   */\n      dup2\n        /* \"#utility.yul\":4033:4063   */\n      gt\n        /* \"#utility.yul\":4030:4086   */\n      iszero\n      tag_91\n      jumpi\n        /* \"#utility.yul\":4066:4084   */\n      tag_91\n      tag_47\n      jump\t// in\n    tag_91:\n        /* \"#utility.yul\":4095:4192   */\n      tag_92\n        /* \"#utility.yul\":4185:4191   */\n      dup2\n        /* \"#utility.yul\":4145:4183   */\n      tag_93\n        /* \"#utility.yul\":4177:4181   */\n      dup5\n        /* \"#utility.yul\":4171:4182   */\n      sload\n        /* \"#utility.yul\":4145:4183   */\n      tag_34\n      jump\t// in\n    tag_93:\n        /* \"#utility.yul\":4139:4143   */\n      dup5\n        /* \"#utility.yul\":4095:4192   */\n      tag_50\n      jump\t// in\n    tag_92:\n        /* \"#utility.yul\":4247:4251   */\n      0x20\n      dup1\n        /* \"#utility.yul\":4304:4306   */\n      0x1f\n        /* \"#utility.yul\":4293:4307   */\n      dup4\n      gt\n        /* \"#utility.yul\":4321:4322   */\n      0x01\n        /* \"#utility.yul\":4316:4979   */\n      dup2\n      eq\n      tag_95\n      jumpi\n        /* \"#utility.yul\":5023:5024   */\n      0x00\n        /* \"#utility.yul\":5040:5046   */\n      dup5\n        /* \"#utility.yul\":5037:5126   */\n      iszero\n      tag_96\n      jumpi\n      pop\n        /* \"#utility.yul\":5092:5111   */\n      dup6\n      dup4\n      add\n        /* \"#utility.yul\":5086:5112   */\n      mload\n        /* \"#utility.yul\":5037:5126   */\n    tag_96:\n      not(0x00)\n        /* \"#utility.yul\":3848:3849   */\n      0x03\n        /* \"#utility.yul\":3844:3855   */\n      dup7\n      swap1\n      shl\n        /* \"#utility.yul\":3840:3864   */\n      shr\n        /* \"#utility.yul\":3836:3865   */\n      not\n        /* \"#utility.yul\":3826:3866   */\n      and\n        /* \"#utility.yul\":3872:3873   */\n      0x01\n        /* \"#utility.yul\":3868:3879   */\n      dup6\n      swap1\n      shl\n        /* \"#utility.yul\":3823:3880   */\n      or\n        /* \"#utility.yul\":5139:5220   */\n      dup6\n      sstore\n        /* \"#utility.yul\":4286:5230   */\n      jump(tag_94)\n        /* \"#utility.yul\":4316:4979   */\n    tag_95:\n        /* \"#utility.yul\":3144:3145   */\n      0x00\n        /* \"#utility.yul\":3137:3151   */\n      dup6\n      dup2\n      mstore\n        /* \"#utility.yul\":3181:3185   */\n      0x20\n        /* \"#utility.yul\":3168:3186   */\n      dup2\n      keccak256\n      not(0x1f)\n        /* \"#utility.yul\":4352:4372   */\n      dup7\n      and\n      swap2\n        /* \"#utility.yul\":4470:4706   */\n    tag_99:\n        /* \"#utility.yul\":4484:4491   */\n      dup3\n        /* \"#utility.yul\":4481:4482   */\n      dup2\n        /* \"#utility.yul\":4478:4492   */\n      lt\n        /* \"#utility.yul\":4470:4706   */\n      iszero\n      tag_101\n      jumpi\n        /* \"#utility.yul\":4573:4592   */\n      dup9\n      dup7\n      add\n        /* \"#utility.yul\":4567:4593   */\n      mload\n        /* \"#utility.yul\":4552:4594   */\n      dup3\n      sstore\n        /* \"#utility.yul\":4665:4692   */\n      swap5\n      dup5\n      add\n      swap5\n        /* \"#utility.yul\":4633:4634   */\n      0x01\n        /* \"#utility.yul\":4621:4635   */\n      swap1\n      swap2\n      add\n      swap1\n        /* \"#utility.yul\":4500:4519   */\n      dup5\n      add\n        /* \"#utility.yul\":4470:4706   */\n      jump(tag_99)\n    tag_101:\n        /* \"#utility.yul\":4474:4477   */\n      pop\n        /* \"#utility.yul\":4734:4740   */\n      dup6\n        /* \"#utility.yul\":4725:4732   */\n      dup3\n        /* \"#utility.yul\":4722:4741   */\n      lt\n        /* \"#utility.yul\":4719:4920   */\n      iszero\n      tag_102\n      jumpi\n        /* \"#utility.yul\":4795:4814   */\n      dup8\n      dup6\n      add\n        /* \"#utility.yul\":4789:4815   */\n      mload\n      not(0x00)\n        /* \"#utility.yul\":4878:4879   */\n      0x03\n        /* \"#utility.yul\":4874:4888   */\n      dup9\n      swap1\n      shl\n        /* \"#utility.yul\":4890:4893   */\n      0xf8\n        /* \"#utility.yul\":4870:4894   */\n      and\n        /* \"#utility.yul\":4866:4903   */\n      shr\n        /* \"#utility.yul\":4862:4904   */\n      not\n        /* \"#utility.yul\":4847:4905   */\n      and\n        /* \"#utility.yul\":4832:4906   */\n      dup2\n      sstore\n        /* \"#utility.yul\":4719:4920   */\n    tag_102:\n      pop\n      pop\n        /* \"#utility.yul\":4966:4967   */\n      0x01\n        /* \"#utility.yul\":4957:4963   */\n      dup5\n        /* \"#utility.yul\":4954:4955   */\n      0x01\n        /* \"#utility.yul\":4950:4964   */\n      shl\n        /* \"#utility.yul\":4946:4968   */\n      add\n        /* \"#utility.yul\":4940:4944   */\n      dup6\n        /* \"#utility.yul\":4933:4969   */\n      sstore\n        /* \"#utility.yul\":4286:5230   */\n    tag_94:\n      pop\n      pop\n      pop\n      pop\n        /* \"#utility.yul\":3891:5236   */\n      pop\n      pop\n      jump\t// out\n        /* \"#utility.yul\":5241:5530   */\n    tag_45:\n        /* \"#utility.yul\":5372:5375   */\n      0x00\n        /* \"#utility.yul\":5410:5416   */\n      dup3\n        /* \"#utility.yul\":5404:5417   */\n      mload\n        /* \"#utility.yul\":5426:5492   */\n      tag_104\n        /* \"#utility.yul\":5485:5491   */\n      dup2\n        /* \"#utility.yul\":5480:5483   */\n      dup5\n        /* \"#utility.yul\":5473:5477   */\n      0x20\n        /* \"#utility.yul\":5465:5471   */\n      dup8\n        /* \"#utility.yul\":5461:5478   */\n      add\n        /* \"#utility.yul\":5426:5492   */\n      tag_46\n      jump\t// in\n    tag_104:\n        /* \"#utility.yul\":5508:5524   */\n      swap2\n      swap1\n      swap2\n      add\n      swap3\n        /* \"#utility.yul\":5241:5530   */\n      swap2\n      pop\n      pop\n      jump\t// out\n\n    auxdata: 0xa2646970667358221220690c8db0ff76fe94d9d3103ac1a70e2e45030e3774e7f813ed5ff2e52a8a0a9564736f6c63430008180033\n}\n",
				"bytecode": {
					"linkReferences": {},
					"object": "608060405234801561000f575f80fd5b5061055b8061001d5f395ff3fe608060405234801561000f575f80fd5b5060043610610055575f3560e01c80632e64cec1146100595780632ebce6311461006f5780636057361d146100905780636f760f41146100a45780638bab8dd5146100b7575b5f80fd5b5f545b6040519081526020015b60405180910390f35b61008261007d36600461023b565b6100e2565b604051610066929190610274565b6100a261009e36600461023b565b5f55565b005b6100a26100b236600461034a565b610196565b61005c6100c536600461038c565b805160208183018101805160038252928201919093012091525481565b600281815481106100f1575f80fd5b5f9182526020909120600290910201805460018201805491935090610115906103c6565b80601f0160208091040260200160405190810160405280929190818152602001828054610141906103c6565b801561018c5780601f106101635761010080835404028352916020019161018c565b820191905f5260205f20905b81548152906001019060200180831161016f57829003601f168201915b5050505050905082565b6040805180820190915281815260208101838152600280546001810182555f829052835191027f405787fa12a823e0f2b7631cc41b3ba8828b3321ca811111fa75cd3aa3bb5ace8101918255915190917f405787fa12a823e0f2b7631cc41b3ba8828b3321ca811111fa75cd3aa3bb5acf0190610213908261044a565b50505080600383604051610227919061050a565b908152604051908190036020019020555050565b5f6020828403121561024b575f80fd5b5035919050565b5f5b8381101561026c578181015183820152602001610254565b50505f910152565b828152604060208201525f8251806040840152610298816060850160208701610252565b601f01601f1916919091016060019392505050565b634e487b7160e01b5f52604160045260245ffd5b5f82601f8301126102d0575f80fd5b813567ffffffffffffffff808211156102eb576102eb6102ad565b604051601f8301601f19908116603f01168101908282118183101715610313576103136102ad565b8160405283815286602085880101111561032b575f80fd5b836020870160208301375f602085830101528094505050505092915050565b5f806040838503121561035b575f80fd5b823567ffffffffffffffff811115610371575f80fd5b61037d858286016102c1565b95602094909401359450505050565b5f6020828403121561039c575f80fd5b813567ffffffffffffffff8111156103b2575f80fd5b6103be848285016102c1565b949350505050565b600181811c908216806103da57607f821691505b6020821081036103f857634e487b7160e01b5f52602260045260245ffd5b50919050565b601f82111561044557805f5260205f20601f840160051c810160208510156104235750805b601f840160051c820191505b81811015610442575f815560010161042f565b50505b505050565b815167ffffffffffffffff811115610464576104646102ad565b6104788161047284546103c6565b846103fe565b602080601f8311600181146104ab575f84156104945750858301515b5f19600386901b1c1916600185901b178555610502565b5f85815260208120601f198616915b828110156104d9578886015182559484019460019091019084016104ba565b50858210156104f657878501515f19600388901b60f8161c191681555b505060018460011b0185555b505050505050565b5f825161051b818460208701610252565b919091019291505056fea2646970667358221220690c8db0ff76fe94d9d3103ac1a70e2e45030e3774e7f813ed5ff2e52a8a0a9564736f6c63430008180033",
					"opcodes": "PUSH1 0x80 PUSH1 0x40 MSTORE CALLVALUE DUP1 ISZERO PUSH2 0xF JUMPI PUSH0 DUP1 REVERT JUMPDEST POP PUSH2 0x55B DUP1 PUSH2 0x1D PUSH0 CODECOPY PUSH0 RETURN INVALID PUSH1 0x80 PUSH1 0x40 MSTORE CALLVALUE DUP1 ISZERO PUSH2 0xF JUMPI PUSH0 DUP1 REVERT JUMPDEST POP PUSH1 0x4 CALLDATASIZE LT PUSH2 0x55 JUMPI PUSH0 CALLDATALOAD PUSH1 0xE0 SHR DUP1 PUSH4 0x2E64CEC1 EQ PUSH2 0x59 JUMPI DUP1 PUSH4 0x2EBCE631 EQ PUSH2 0x6F JUMPI DUP1 PUSH4 0x6057361D EQ PUSH2 0x90 JUMPI DUP1 PUSH4 0x6F760F41 EQ PUSH2 0xA4 JUMPI DUP1 PUSH4 0x8BAB8DD5 EQ PUSH2 0xB7 JUMPI JUMPDEST PUSH0 DUP1 REVERT JUMPDEST PUSH0 SLOAD JUMPDEST PUSH1 0x40 MLOAD SWAP1 DUP2 MSTORE PUSH1 0x20 ADD JUMPDEST PUSH1 0x40 MLOAD DUP1 SWAP2 SUB SWAP1 RETURN JUMPDEST PUSH2 0x82 PUSH2 0x7D CALLDATASIZE PUSH1 0x4 PUSH2 0x23B JUMP JUMPDEST PUSH2 0xE2 JUMP JUMPDEST PUSH1 0x40 MLOAD PUSH2 0x66 SWAP3 SWAP2 SWAP1 PUSH2 0x274 JUMP JUMPDEST PUSH2 0xA2 PUSH2 0x9E CALLDATASIZE PUSH1 0x4 PUSH2 0x23B JUMP JUMPDEST PUSH0 SSTORE JUMP JUMPDEST STOP JUMPDEST PUSH2 0xA2 PUSH2 0xB2 CALLDATASIZE PUSH1 0x4 PUSH2 0x34A JUMP JUMPDEST PUSH2 0x196 JUMP JUMPDEST PUSH2 0x5C PUSH2 0xC5 CALLDATASIZE PUSH1 0x4 PUSH2 0x38C JUMP JUMPDEST DUP1 MLOAD PUSH1 0x20 DUP2 DUP4 ADD DUP2 ADD DUP1 MLOAD PUSH1 0x3 DUP3 MSTORE SWAP3 DUP3 ADD SWAP2 SWAP1 SWAP4 ADD KECCAK256 SWAP2 MSTORE SLOAD DUP2 JUMP JUMPDEST PUSH1 0x2 DUP2 DUP2 SLOAD DUP2 LT PUSH2 0xF1 JUMPI PUSH0 DUP1 REVERT JUMPDEST PUSH0 SWAP2 DUP3 MSTORE PUSH1 0x20 SWAP1 SWAP2 KECCAK256 PUSH1 0x2 SWAP1 SWAP2 MUL ADD DUP1 SLOAD PUSH1 0x1 DUP3 ADD DUP1 SLOAD SWAP2 SWAP4 POP SWAP1 PUSH2 0x115 SWAP1 PUSH2 0x3C6 JUMP JUMPDEST DUP1 PUSH1 0x1F ADD PUSH1 0x20 DUP1 SWAP2 DIV MUL PUSH1 0x20 ADD PUSH1 0x40 MLOAD SWAP1 DUP2 ADD PUSH1 0x40 MSTORE DUP1 SWAP3 SWAP2 SWAP1 DUP2 DUP2 MSTORE PUSH1 0x20 ADD DUP3 DUP1 SLOAD PUSH2 0x141 SWAP1 PUSH2 0x3C6 JUMP JUMPDEST DUP1 ISZERO PUSH2 0x18C JUMPI DUP1 PUSH1 0x1F LT PUSH2 0x163 JUMPI PUSH2 0x100 DUP1 DUP4 SLOAD DIV MUL DUP4 MSTORE SWAP2 PUSH1 0x20 ADD SWAP2 PUSH2 0x18C JUMP JUMPDEST DUP3 ADD SWAP2 SWAP1 PUSH0 MSTORE PUSH1 0x20 PUSH0 KECCAK256 SWAP1 JUMPDEST DUP2 SLOAD DUP2 MSTORE SWAP1 PUSH1 0x1 ADD SWAP1 PUSH1 0x20 ADD DUP1 DUP4 GT PUSH2 0x16F JUMPI DUP3 SWAP1 SUB PUSH1 0x1F AND DUP3 ADD SWAP2 JUMPDEST POP POP POP POP POP SWAP1 POP DUP3 JUMP JUMPDEST PUSH1 0x40 DUP1 MLOAD DUP1 DUP3 ADD SWAP1 SWAP2 MSTORE DUP2 DUP2 MSTORE PUSH1 0x20 DUP2 ADD DUP4 DUP2 MSTORE PUSH1 0x2 DUP1 SLOAD PUSH1 0x1 DUP2 ADD DUP3 SSTORE PUSH0 DUP3 SWAP1 MSTORE DUP4 MLOAD SWAP2 MUL PUSH32 0x405787FA12A823E0F2B7631CC41B3BA8828B3321CA811111FA75CD3AA3BB5ACE DUP2 ADD SWAP2 DUP3 SSTORE SWAP2 MLOAD SWAP1 SWAP2 PUSH32 0x405787FA12A823E0F2B7631CC41B3BA8828B3321CA811111FA75CD3AA3BB5ACF ADD SWAP1 PUSH2 0x213 SWAP1 DUP3 PUSH2 0x44A JUMP JUMPDEST POP POP POP DUP1 PUSH1 0x3 DUP4 PUSH1 0x40 MLOAD PUSH2 0x227 SWAP2 SWAP1 PUSH2 0x50A JUMP JUMPDEST SWAP1 DUP2 MSTORE PUSH1 0x40 MLOAD SWAP1 DUP2 SWAP1 SUB PUSH1 0x20 ADD SWAP1 KECCAK256 SSTORE POP POP JUMP JUMPDEST PUSH0 PUSH1 0x20 DUP3 DUP5 SUB SLT ISZERO PUSH2 0x24B JUMPI PUSH0 DUP1 REVERT JUMPDEST POP CALLDATALOAD SWAP2 SWAP1 POP JUMP JUMPDEST PUSH0 JUMPDEST DUP4 DUP2 LT ISZERO PUSH2 0x26C JUMPI DUP2 DUP2 ADD MLOAD DUP4 DUP3 ADD MSTORE PUSH1 0x20 ADD PUSH2 0x254 JUMP JUMPDEST POP POP PUSH0 SWAP2 ADD MSTORE JUMP JUMPDEST DUP3 DUP2 MSTORE PUSH1 0x40 PUSH1 0x20 DUP3 ADD MSTORE PUSH0 DUP3 MLOAD DUP1 PUSH1 0x40 DUP5 ADD MSTORE PUSH2 0x298 DUP2 PUSH1 0x60 DUP6 ADD PUSH1 0x20 DUP8 ADD PUSH2 0x252 JUMP JUMPDEST PUSH1 0x1F ADD PUSH1 0x1F NOT AND SWAP2 SWAP1 SWAP2 ADD PUSH1 0x60 ADD SWAP4 SWAP3 POP POP POP JUMP JUMPDEST PUSH4 0x4E487B71 PUSH1 0xE0 SHL PUSH0 MSTORE PUSH1 0x41 PUSH1 0x4 MSTORE PUSH1 0x24 PUSH0 REVERT JUMPDEST PUSH0 DUP3 PUSH1 0x1F DUP4 ADD SLT PUSH2 0x2D0 JUMPI PUSH0 DUP1 REVERT JUMPDEST DUP2 CALLDATALOAD PUSH8 0xFFFFFFFFFFFFFFFF DUP1 DUP3 GT ISZERO PUSH2 0x2EB JUMPI PUSH2 0x2EB PUSH2 0x2AD JUMP JUMPDEST PUSH1 0x40 MLOAD PUSH1 0x1F DUP4 ADD PUSH1 0x1F NOT SWAP1 DUP2 AND PUSH1 0x3F ADD AND DUP2 ADD SWAP1 DUP3 DUP3 GT DUP2 DUP4 LT OR ISZERO PUSH2 0x313 JUMPI PUSH2 0x313 PUSH2 0x2AD JUMP JUMPDEST DUP2 PUSH1 0x40 MSTORE DUP4 DUP2 MSTORE DUP7 PUSH1 0x20 DUP6 DUP9 ADD ADD GT ISZERO PUSH2 0x32B JUMPI PUSH0 DUP1 REVERT JUMPDEST DUP4 PUSH1 0x20 DUP8 ADD PUSH1 0x20 DUP4 ADD CALLDATACOPY PUSH0 PUSH1 0x20 DUP6 DUP4 ADD ADD MSTORE DUP1 SWAP5 POP POP POP POP POP SWAP3 SWAP2 POP POP JUMP JUMPDEST PUSH0 DUP1 PUSH1 0x40 DUP4 DUP6 SUB SLT ISZERO PUSH2 0x35B JUMPI PUSH0 DUP1 REVERT JUMPDEST DUP3 CALLDATALOAD PUSH8 0xFFFFFFFFFFFFFFFF DUP2 GT ISZERO PUSH2 0x371 JUMPI PUSH0 DUP1 REVERT JUMPDEST PUSH2 0x37D DUP6 DUP3 DUP7 ADD PUSH2 0x2C1 JUMP JUMPDEST SWAP6 PUSH1 0x20 SWAP5 SWAP1 SWAP5 ADD CALLDATALOAD SWAP5 POP POP POP POP JUMP JUMPDEST PUSH0 PUSH1 0x20 DUP3 DUP5 SUB SLT ISZERO PUSH2 0x39C JUMPI PUSH0 DUP1 REVERT JUMPDEST DUP2 CALLDATALOAD PUSH8 0xFFFFFFFFFFFFFFFF DUP2 GT ISZERO PUSH2 0x3B2 JUMPI PUSH0 DUP1 REVERT JUMPDEST PUSH2 0x3BE DUP5 DUP3 DUP6 ADD PUSH2 0x2C1 JUMP JUMPDEST SWAP5 SWAP4 POP POP POP POP JUMP JUMPDEST PUSH1 0x1 DUP2 DUP2 SHR SWAP1 DUP3 AND DUP1 PUSH2 0x3DA JUMPI PUSH1 0x7F DUP3 AND SWAP2 POP JUMPDEST PUSH1 0x20 DUP3 LT DUP2 SUB PUSH2 0x3F8 JUMPI PUSH4 0x4E487B71 PUSH1 0xE0 SHL PUSH0 MSTORE PUSH1 0x22 PUSH1 0x4 MSTORE PUSH1 0x24 PUSH0 REVERT JUMPDEST POP SWAP2 SWAP1 POP JUMP JUMPDEST PUSH1 0x1F DUP3 GT ISZERO PUSH2 0x445 JUMPI DUP1 PUSH0 MSTORE PUSH1 0x20 PUSH0 KECCAK256 PUSH1 0x1F DUP5 ADD PUSH1 0x5 SHR DUP2 ADD PUSH1 0x20 DUP6 LT ISZERO PUSH2 0x423 JUMPI POP DUP1 JUMPDEST PUSH1 0x1F DUP5 ADD PUSH1 0x5 SHR DUP3 ADD SWAP2 POP JUMPDEST DUP2 DUP2 LT ISZERO PUSH2 0x442 JUMPI PUSH0 DUP2 SSTORE PUSH1 0x1 ADD PUSH2 0x42F JUMP JUMPDEST POP POP JUMPDEST POP POP POP JUMP JUMPDEST DUP2 MLOAD PUSH8 0xFFFFFFFFFFFFFFFF DUP2 GT ISZERO PUSH2 0x464 JUMPI PUSH2 0x464 PUSH2 0x2AD JUMP JUMPDEST PUSH2 0x478 DUP2 PUSH2 0x472 DUP5 SLOAD PUSH2 0x3C6 JUMP JUMPDEST DUP5 PUSH2 0x3FE JUMP JUMPDEST PUSH1 0x20 DUP1 PUSH1 0x1F DUP4 GT PUSH1 0x1 DUP2 EQ PUSH2 0x4AB JUMPI PUSH0 DUP5 ISZERO PUSH2 0x494 JUMPI POP DUP6 DUP4 ADD MLOAD JUMPDEST PUSH0 NOT PUSH1 0x3 DUP7 SWAP1 SHL SHR NOT AND PUSH1 0x1 DUP6 SWAP1 SHL OR DUP6 SSTORE PUSH2 0x502 JUMP JUMPDEST PUSH0 DUP6 DUP2 MSTORE PUSH1 0x20 DUP2 KECCAK256 PUSH1 0x1F NOT DUP7 AND SWAP2 JUMPDEST DUP3 DUP2 LT ISZERO PUSH2 0x4D9 JUMPI DUP9 DUP7 ADD MLOAD DUP3 SSTORE SWAP5 DUP5 ADD SWAP5 PUSH1 0x1 SWAP1 SWAP2 ADD SWAP1 DUP5 ADD PUSH2 0x4BA JUMP JUMPDEST POP DUP6 DUP3 LT ISZERO PUSH2 0x4F6 JUMPI DUP8 DUP6 ADD MLOAD PUSH0 NOT PUSH1 0x3 DUP9 SWAP1 SHL PUSH1 0xF8 AND SHR NOT AND DUP2 SSTORE JUMPDEST POP POP PUSH1 0x1 DUP5 PUSH1 0x1 SHL ADD DUP6 SSTORE JUMPDEST POP POP POP POP POP POP JUMP JUMPDEST PUSH0 DUP3 MLOAD PUSH2 0x51B DUP2 DUP5 PUSH1 0x20 DUP8 ADD PUSH2 0x252 JUMP JUMPDEST SWAP2 SWAP1 SWAP2 ADD SWAP3 SWAP2 POP POP JUMP INVALID LOG2 PUSH5 0x6970667358 0x22 SLT KECCAK256 PUSH10 0xC8DB0FF76FE94D9D310 GASPRICE 0xC1 0xA7 0xE 0x2E GASLIMIT SUB 0xE CALLDATACOPY PUSH21 0xE7F813ED5FF2E52A8A0A9564736F6C634300081800 CALLER "
				},
				"gasEstimates": {
					"creation": {
						"codeDepositCost": "274200",
						"executionCost": "310",
						"totalCost": "274510"
					},
					"external": {
						"addPerson(string,uint256)": "infinite",
						"listOfPeople(uint256)": "infinite",
						"nameToFavoriteNumber(string)": "infinite",
						"retrieve()": "2246",
						"store(uint256)": "22331"
					}
				},
				"methodIdentifiers": {
					"addPerson(string,uint256)": "6f760f41",
					"listOfPeople(uint256)": "2ebce631",
					"nameToFavoriteNumber(string)": "8bab8dd5",
					"retrieve()": "2e64cec1",
					"store(uint256)": "6057361d"
				}
			},
			"storageLayout": {
				"storage": [
					{
						"astId": 59,
						"contract": "Create Solidity Smart Contract/SimpleStorage.sol:SimpleStorage",
						"label": "myFavoriteNumber",
						"offset": 0,
						"slot": "0",
						"type": "t_uint256"
					},
					{
						"astId": 62,
						"contract": "Create Solidity Smart Contract/SimpleStorage.sol:SimpleStorage",
						"label": "listOfFavoriteNumbers",
						"offset": 0,
						"slot": "1",
						"type": "t_array(t_uint256)dyn_storage"
					},
					{
						"astId": 71,
						"contract": "Create Solidity Smart Contract/SimpleStorage.sol:SimpleStorage",
						"label": "listOfPeople",
						"offset": 0,
						"slot": "2",
						"type": "t_array(t_struct(Person)67_storage)dyn_storage"
					},
					{
						"astId": 75,
						"contract": "Create Solidity Smart Contract/SimpleStorage.sol:SimpleStorage",
						"label": "nameToFavoriteNumber",
						"offset": 0,
						"slot": "3",
						"type": "t_mapping(t_string_memory_ptr,t_uint256)"
					}
				],
				"types": {
					"t_array(t_struct(Person)67_storage)dyn_storage": {
						"base": "t_struct(Person)67_storage",
						"encoding": "dynamic_array",
						"label": "struct SimpleStorage.Person[]",
						"numberOfBytes": "32"
					},
					"t_array(t_uint256)dyn_storage": {
						"base": "t_uint256",
						"encoding": "dynamic_array",
						"label": "uint256[]",
						"numberOfBytes": "32"
					},
					"t_mapping(t_string_memory_ptr,t_uint256)": {
						"encoding": "mapping",
						"key": "t_string_memory_ptr",
						"label": "mapping(string => uint256)",
						"numberOfBytes": "32",
						"value": "t_uint256"
					},
					"t_string_memory_ptr": {
						"encoding": "bytes",
						"label": "string",
						"numberOfBytes": "32"
					},
					"t_string_storage": {
						"encoding": "bytes",
						"label": "string",
						"numberOfBytes": "32"
					},
					"t_struct(Person)67_storage": {
						"encoding": "inplace",
						"label": "struct SimpleStorage.Person",
						"members": [
							{
								"astId": 64,
								"contract": "Create Solidity Smart Contract/SimpleStorage.sol:SimpleStorage",
								"label": "favoriteNumber",
								"offset": 0,
								"slot": "0",
								"type": "t_uint256"
							},
							{
								"astId": 66,
								"contract": "Create Solidity Smart Contract/SimpleStorage.sol:SimpleStorage",
								"label": "name",
								"offset": 0,
								"slot": "1",
								"type": "t_string_storage"
							}
						],
						"numberOfBytes": "64"
					},
					"t_uint256": {
						"encoding": "inplace",
						"label": "uint256",
						"numberOfBytes": "32"
					}
				}
			},
			"userdoc": {
				"kind": "user",
				"methods": {},
				"version": 1
			}
		}
	}
}